:1000000077C06FC195C159CC31CC97C0E1CB07CC3B
:10001000B8CB90CB92C091C090C08FC08EC08DC025
:100020008CC08BC08AC0E9C336C4EBC334C4F3C3ED
:1000300032C4FBC330C4FCC32EC4FEC32CC406C4EC
:100040002AC40EC428C40FC426C411C424C419C4AD
:1000500040C747C74EC765C76CC78CC793C7B0C7F3
:10006000B7C7CFC7D6C7F2C7F9C716C81DC836C8A5
:100070003DC855C85CC878C87FC89CC8A3C8BCC860
:100080000B17001C110510110E120C18120C121077
:100090001218101212100C18100C12101018101048
:1000A000120C0C0C0A0A0A0B101A0E001A111B1A59
:1000B00018001A1A1A0B0E0C180E0C120E0C050E44
:1000C0000C1D0E0C1008111AFDFBF7EFDFBF5F418E
:1000D0009DD5C3D6DE45DFD7800010CFDA1ED99E6E
:1000E0008ECA51CB1AC88FC7889AD35852016F0A4B
:1000F00011241FBECFE5D4E0DEBFCDBF10E0A0E6E7
:10010000B0E0EEEDFDE102C005900D92AC37B10715
:10011000D9F721E0ACE7B0E001C01D92AA33B207E5
:10012000E1F710E0C0EFD0E003C02297FE0124DE2B
:10013000CC3ED107D1F7FFD850CE62CF379A86B1E7
:10014000887F86B986B1876086B987B18F7387B992
:10015000089597B1987F97B997B1892B87B9369A47
:100160003699FECF84B195B108958630A1F028F478
:10017000882349F0853051F01FC08830B1F080F0FD
:100180008930B1F019C080B38170089580B385FBC8
:10019000882780F9089580B386FB882780F9089521
:1001A00080B3881F8827881F089586B381700895BB
:1001B00086B386958170089580E0089580917C00D3
:1001C00008951F93CF93DF93EC0118818C81CDDFCD
:1001D000181731F08A81882391F081508A830FC0EB
:1001E0008A818F5F8A839B81891748F081E098819B
:1001F000911180E088831A82813009F48983DF912C
:10020000CF911F9108958230F9F028F4882341F0AE
:10021000813081F037C0833009F1843049F132C038
:1002200085E990E0CEDF80919600813069F51092EB
:100230009600089580E990E0C4DF809191008130BC
:1002400029F51092910008958BE890E0BADF809133
:100250008C008130E9F410928C00089586E890E0DB
:10026000B0DF809187008130A9F410928700089553
:1002700081E890E0A6DF80918200813069F41092DD
:100280008200089580E0089580E0089580E0089558
:1002900080E0089580E0089580E00895FC01648383
:1002A000438308954FE065E085E990E0F7DF4FE094
:1002B00066E080E990E0F2DF4FE067E08BE890E0F5
:1002C000EDDF4AE068E086E890E0E8DF4AE069E0D8
:1002D00081E890E0E3DF4AE060E08CE790E0DEDF79
:1002E00008951F920F920FB60F9211242F933F93F0
:1002F0004F935F936F937F938F939F93AF93BF932E
:10030000EF93FF93E0916200F09163000995FF91F4
:10031000EF91BF91AF919F918F917F916F915F917D
:100320004F913F912F910F900FBE0F901F901895F6
:100330001F920F920FB60F9211242F933F934F935A
:100340005F936F937F938F939F93AF93BF93EF933D
:10035000FF93E0916000F09161000995FF91EF91AA
:10036000BF91AF919F918F917F916F915F914F91CD
:100370003F912F910F900FBE0F901F901895909363
:1003800063008093620008958091C4009091C5003D
:10039000A091C600B091C7000196A11DB11D809328
:1003A000C4009093C500A093C600B093C700089501
:1003B000949A0895949808958091ED009091EE009C
:1003C00001969093EE008093ED002091ED00309126
:1003D000EE008091EF009091F000821793070CF4EB
:1003E000919A08951092EE001092ED0089B7806402
:1003F00089BF85B7836085BF80E092E0C0DF089544
:100400001092EE001092ED0089B78F7B89BF919812
:1004100085B7826085BF85B78E7F85BF82EF91E00B
:10042000AEDF81E08093EB00089508958091E400B1
:10043000882331F089B7846089BF89B7806189BF1B
:1004400008958091E400882359F089B78B7F89BF94
:1004500089B78F7E89BF949882EF90E082D801C0DF
:1004600094981092E60008958091E4008823E9F1C1
:100470004AEC50E066ED70E082EF90E08CD8DC0151
:10048000CB01880F991FAA1FBB1F880F991FAA1F96
:10049000BB1F880F991FAA1FBB1F880F991FAA1F78
:1004A000BB1F880F991FAA1FBB1F880F991FAA1F68
:1004B000BB1F880F991FAA1FBB1F009721E0A2072F
:1004C000B1052CF08FEF9FEF9BBD8ABD089580345E
:1004D0002FE19207A105B1051CF09BBD8ABD0895CF
:1004E00080E49FE19BBD8ABD08958091CA009091F0
:1004F000CB0002962091D6003091D7008217930747
:100500000CF4949A8091CA009091CB0002962091AD
:10051000D6003091D700281739070CF49498089525
:100520008BB78F7B8BBF89B78F7B89BF919881E019
:100530008093EA001092E70086E191E012D80895D6
:10054000FF920F931F93CF93DF930EEC10E0C6EB57
:10055000D0E0F12CF3948F2DFCDDFE012881398150
:10056000AC01421B530B423051054CF0D8012D9188
:100570003C9111972F5F3F4F2D933C9310C0281B48
:10058000390B2230310544F0D8018D919C9111979F
:1005900001978D939C9303C0D8018D939C93D801B0
:1005A0002D913D918D01318320832296B4E0FB1281
:1005B000D1CFDF91CF911F910F91FF900895C0DFB0
:1005C0008091CE009091CF00959587959093D7001C
:1005D0008093D6008091D0009091D1009595879519
:1005E0009093D9008093D8004091D2005091D300CD
:1005F0002091DA003091DB00429FC001439F900DB3
:10060000529F900D112464E670E081DB8091DE0042
:100610009091DF00681779072CF41092CB001092AC
:10062000CA0006C0681B790B7093CB006093CA00A8
:100630004091D4005091D5002091DC003091DD0034
:10064000429FC001439F900D529F900D112464E67C
:1006500070E05DDB8091E0009091E100680F791F10
:100660007093CD006093CC008091E700882329F13E
:100670004CEC50E068ED70E086E191E08CD762339D
:1006800071053CF48FE392E09093F0008093EF00CB
:100690000895603442E0740754F421E732E0C90160
:1006A000861B970B9093F0008093EF00089582E3F0
:1006B00090E09093F0008093EF000895CF93DF9344
:1006C000AEEBB0E080E090E026EE30E0C7EED0E0A8
:1006D000ED91F0E0E253FF4F5491F9014081413038
:1006E00021F4823011F4506206C04881413019F47F
:1006F000853009F450625FB9779BFECFFC01E85367
:10070000FF4FE491EFB9779BFECFC29AC298EFE812
:10071000F1E03197F1F700C00000019686309105B5
:10072000B9F6DF91CF910895CF93DF93A82FB0E072
:10073000A254BF4F50E0CA01880F991F480F591F9C
:1007400020E030E0EA01C058DF4FCA018A549F4FD1
:1007500049555F4F613051F018F0623069F011C0B7
:10076000FC01E20FF31FE491EC930BC0FE01E20FDA
:10077000F31FE491EC9305C0FA01E20FF31FE4913B
:10078000EC932F5F3F4F11962330310519F7DF911E
:10079000CF910895882331F04091E20061E083E039
:1007A000C3DF05C04091E20061E080E0BDDF81E091
:1007B0000895CF92DF92EF92FF920F931F93CF9302
:1007C000DF9300D000D000D0CDB7DEB71E821D82EF
:1007D0001C821B821A8219828091F100813009F0FB
:1007E0007AC080916E0090E0FC013297E531F1050E
:1007F00008F051C0ED5EFF4F099481E0CBDF182F68
:100800002DC281E08E838091E2009091E3009C8371
:100810008B8310E023C281E08D838091E200909170
:10082000E3009A83898310E019C280E0B3DF34C00B
:1008300081E0B0DF182F12C281E08E838091E20048
:100840009091E3009C838B8310E008C281E08D834C
:100850008091E2009091E3009A83898310E0FEC1C9
:1008600080E098DF19C081E095DF182FF7C181E0A3
:100870008E838091E2009091E3009C838B8310E053
:10088000EDC181E08D838091E2009091E3009A8335
:10089000898310E0E3C180E09E81911104C0882328
:1008A00059F010E001C010E040916E0046954F5F96
:1008B00061E083E039DF01C010E08D81811103C068
:1008C000112309F4A4C040916E0046954F5F61E08A
:1008D00080E02ADF9CC081119AC0F091C400E091B1
:1008E000C5007091C6006091C7008091AE009091E4
:1008F000AF00A091B000B091B1002091D60030912E
:10090000D7004091B2005091B300421B530B4D5F92
:100910005F4F4730510540F03093B3002093B20051
:100920008F2F9E2FA72FB62F2091D8003091D9005E
:100930004091B4005091B500421B530B4D5F5F4F87
:100940004730510540F03093B5002093B4008F2F0D
:100950009E2FA72FB62F8093AE009093AF00A09349
:10096000B000B093B1004091C4005091C5006091B7
:10097000C6007091C7008A019B01081B190B2A0B46
:100980003B0B0A3711052105310580F481E08E8388
:100990008D838091D6009091D7009C838B8380912A
:1009A000D8009091D9009A83898331C08091E60064
:1009B00081110CC08091D2009091D3008B3892406D
:1009C0002CF01E824CE061E080E0AEDE81E08E83A0
:1009D0008091CA009091CB009C838B838091E7002B
:1009E00081110DC08091D4009091D5008B38924038
:1009F00034F01D824CE061E083E096DE08C081E0C7
:100A00008D838091CC009091CD009A8389838E81D3
:100A1000882361F1E1ECF0E00EEB10E04B815C81AA
:100A20009A01ADECBCEC86D99695879596958795FD
:100A3000969587959C01220F331F880F991F880F69
:100A4000991F880F991F820F931F481B590B4293C0
:100A50002B813C816FD9969587959695879596952C
:100A600087959C838B83E017F107C1F68D818823DE
:100A700061F1E4ECF0E001EC10E049815A819A0167
:100A8000ADECBCEC57D9969587959695879596953C
:100A900087959C01220F331F880F991F880F991F7C
:100AA000880F991F820F931F481B590B429329816E
:100AB0003A8140D99695879596958795969587958D
:100AC0009A838983E017F107C1F68091F1008111C3
:100AD000C9C08091C4009091C500A091C600B0919A
:100AE000C7004091AA005091AB006091AC0070919A
:100AF000AD00841B950BA60BB70B4F97A105B10555
:100B000008F46FC08091E7008823C9F08091EB0062
:100B1000882329F01092EB001092A90010C0809158
:100B2000A900882339F0FCDC8091E8008160809383
:100B3000E80005C01092EB0081E08093A90080914D
:100B4000E6008823E9F08091CA009091CB002091C3
:100B5000D6003091D700821B930B4F977CF0809189
:100B6000A800882339F06DDC8091E90082608093D1
:100B7000E90006C081E08093A80002C01092A8009E
:100B80008091E7008823E9F08091CC009091CD001E
:100B90002091D8003091D900821B930B4F977CF0A5
:100BA0008091A700882339F0BBDC8091E800826047
:100BB0008093E80006C081E08093A70002C01092F5
:100BC000A7008091C4009091C500A091C600B0918B
:100BD000C7008093AA009093AB00A093AC00B093A1
:100BE000AD00E091E900F0E06091E80070E0C090B5
:100BF000BE00D090BF00E090C000F090C100009116
:100C0000C2001091C30087E090E0BAE1A1E1282F73
:100C1000AF01082E02C0559547950A94E2F740FFB0
:100C200003C0E82EDB2ECA2EAB0102C055954795B6
:100C30002A95E2F740FF03C0182F0B2FFA2E0197D9
:100C400030F7C092BE00D092BF00E092C000F09298
:100C5000C1000093C2001093C30004C08E818111B3
:100C600023CE2BCE26960FB6F894DEBF0FBECDBF97
:100C7000DF91CF911F910F91FF90EF90DF90CF9078
:100C80000895CF932091A6002C3090F58091C40058
:100C90009091C500A091C600B091C7004091A200FC
:100CA0005091A3006091A4007091A500435C5F4F38
:100CB0006F4F7F4F481759076A077B0708F04BC0F3
:100CC0002093BE002093BF002093C0002093C1005A
:100CD0002093C2002093C3008093A2009093A300AE
:100CE000A093A400B093A5002F5F2093A60033C06B
:100CF0008091C4009091C500A091C600B091C7003A
:100D00004091A2005091A3006091A4007091A500B1
:100D100048515C4F6F4F7F4F84179507A607B70761
:100D2000C0F4CE97A105B105B0F0C0E08C2F6BDA0E
:100D3000882329F04C2F60E080E0F6DC03C0CF5F11
:100D4000C630A1F78FEB9DE50197F1F700C00000D9
:100D500002C01092EC00CF91089582E054DA88230B
:100D600059F081E08093F10080936E001092E600CC
:100D70001092E70066DBD4DB80E045DA882361F07F
:100D800081E09091E600911180E08093E600882355
:100D900011F04CDB01C055DB8091E500882349F15F
:100DA00081E031DA882381F081E09091E7009111B0
:100DB00080E08093E700882329F0939A8BB78064C2
:100DC0008BBF2AC0ADDB28C0F9D9882331F08091D0
:100DD000E700882309F1A4DB1FC08091E70081119F
:100DE0001BC081E08093E700939A8BB780648BBF30
:100DF00013C081E008DA882379F081E09091E70060
:100E0000911180E08093E700882329F0939A8BB7B3
:100E100080648BBF01C084DB84E0F5D9882321F096
:100E20001092E9001092E8000895CF93DF93FC013F
:100E3000C081D18183E0E7D9882331F081E0CD2BD7
:100E400009F080E0C82FD0E084E0DDD9882331F0BC
:100E500081E0CD2B09F080E0C82FD0E082E0D3D92B
:100E6000882329F080916E008F5F80936E00CE0101
:100E7000DF91CF910895CF93DF93FC01C081D181A1
:100E800083E0C1D98111219684E0BDD981112197D8
:100E900082E0B9D9882329F080916E008F5F80931A
:100EA0006E00CE01DF91CF910895FF920F931F93B3
:100EB000CF93DF931F92CDB7DEB780916E0090E0A5
:100EC000FC013197E831F10508F09BC1E85DFF4F67
:100ED00009941092E3001092E20082E080936E0089
:100EE00090C182EE90E0A1DF9093E3008093E20056
:100EF00088C18091E2009091E300019739F481E08C
:100F00008093EC0088E180936E007BC188E690E0DE
:100F10003FD79093E3008093E20084E080936E00DB
:100F200070C182EE90E0A7DF9093E3008093E2002F
:100F300068C10091E2001091E30088E690E028D7B4
:100F40000817190761F0B80188E690E033D780915F
:100F5000E2009091E3009093DB008093DA0086E654
:100F600090E016D79093E3008093E20086E08093B0
:100F70006E0047C182EE90E07EDF9093E3008093A5
:100F8000E2003FC10091E2001091E30086E690E0AC
:100F9000FFD60817190761F0B80186E690E00AD776
:100FA0008091E2009091E3009093DD008093DC005B
:100FB0001092E3001092E20088E080936E0021C15D
:100FC00082EE90E032DF9093E3008093E20019C15B
:100FD0008091E2009091E300019759F48BE490E056
:100FE0009093DB008093DA006BE470E088E690E099
:100FF000E1D61092E3001092E2008AE080936E0046
:1010000000C182EE90E011DF9093E3008093E20054
:10101000F8C08091E2009091E300019759F48DE7C8
:1010200090E09093DD008093DC006DE770E086E651
:1010300090E0C0D68091DE009091DF009093E300B5
:101040008093E2008CE080936E00DBC082EE90E043
:1010500012DF9093E3008093E200D3C06091E2003E
:101060007091E3008091DE009091DF008617970772
:1010700039F07093DF006093DE0088EC90E09AD640
:101080008091E0009091E1009093E3008093E20072
:101090008EE080936E00B5C082EE90E0ECDE90931F
:1010A000E3008093E200ADC06091E2007091E30044
:1010B0008091E0009091E1008617970739F07093D6
:1010C000E1006093E0008AE690E074D61092E300BD
:1010D0001092E20080E180936E0093C082EE90E077
:1010E000A4DE9093E3008093E2008BC08091E20045
:1010F0009091E300019759F48FE090E09093DF0026
:101100008093DE006FE070E088EC90E053D61092A0
:10111000E3001092E20082E180936E0072C082EEE2
:1011200090E083DE9093E3008093E2006AC08091B8
:10113000E2009091E300019759F484E190E09093EC
:10114000E1008093E00064E170E08AE690E032D64E
:101150008DE690E015D690E09093E3008093E20056
:1011600084E180936E004DC082EE90E05EDE90934D
:10117000E3008093E20045C08DE690E001D66091E7
:10118000E2007091E30090E08617970739F08DE652
:1011900090E003D68091E2008093E4008CE690E03A
:1011A000EFD590E09093E3008093E20086E1809396
:1011B0006E0027C082EE90E038DE9093E3008093CB
:1011C000E2001FC08CE690E0DBD56091E2007091F8
:1011D000E30090E08617970739F08CE690E0DDD5C4
:1011E0008091E2008093E4001092E3001092E2000C
:1011F00088E180936E0005C01092F10081E0809339
:101200006E001982FF24F39400E010E0CE010196F5
:10121000B7D5080F111DF982F3948BE0F812F6CFC1
:10122000B80184E690E0C6D50F90DF91CF911F9171
:101230000F91FF90089581B38A6181BB87B38C625F
:1012400087BB81B38A7181BB87B38C7F87BB82B335
:10125000816E82BB88B3836088BB88B3837D88BB83
:1012600083B7887F83BF83B7856083BF89B7816079
:1012700089BF84EC91E048D38EB5887F8EBD8EB552
:1012800081608EBD88ED91E044D38AED91E046D334
:1012900085B5887F85BD85B5816085BD8CED91E084
:1012A00042D382EF91E06BD885B7826085BF85B766
:1012B0008E7F85BF43D78DB180658DB96D98709A4B
:1012C0001FB8779BFECF1FB8779BFECFC29AC298FC
:1012D00088EC90E05DD59093DF008093DE008AE695
:1012E00090E056D59093E1008093E00088E690E08E
:1012F0004FD59093DB008093DA0086E690E048D5E6
:101300009093DD008093DC008DE690E039D58093EA
:10131000E4008CE690E034D58093E50092D800D9C3
:101320002FE088E190E00FB6F894A89581BD0FBE3C
:1013300021BD78940895CF93DF931F92CDB7DEB788
:101340007ADF44E062E080E0EFD904B600FCBFC081
:1013500081E090E024B730E0082E02C03595279553
:101360000A94E2F720FF26C08093C0001982B2C021
:10137000CE01019605D5080F111DF982F3948BE07B
:10138000F812F6CF84E690E003D50817190729F084
:101390008091E90081608093E9008091C400909180
:1013A000C500A091C600B091C700C797A105B105BF
:1013B00030F013C001968430910561F6EECF7ED9EE
:1013C000A8958091C4009091C500A091C600B091ED
:1013D000C700C797A105B10590F306EE10E00F2EE8
:1013E000F4EDEF2EF0E0FF2EF02D8091EC00811156
:1013F0006AC08091C4009091C500A091C600B091D0
:10140000C70040919E0050919F006091A000709194
:10141000A100841B950BA60BB70B0D97A105B10579
:1014200088F0C7D98091C4009091C500A091C600F2
:10143000B091C70080939E0090939F00A093A0005E
:10144000B093A10040919A0050919B0060919C0044
:1014500070919D008091C4009091C500A091C6003C
:10146000B091C700481759076A077B0769F1A7D8E9
:10147000F80180818111F8D78091F100882319F05B
:10148000813019F003C069DC01C00FDD8091EA00F2
:10149000813041F4F7018081918102971CF4939887
:1014A0001092EA008091C4009091C500A091C600FE
:1014B000B091C70080939A0090939B00A0939C00EA
:1014C000B0939D0001C0DDDBF9D8A8958ECF1092B6
:1014D000C0001982FF24F39400E010E049CF8F92FE
:1014E0009F92AF92BF92CF92DF92EF92FF920F93B3
:1014F0001F930F2EF4E98F2EF7E89F2EF5E8AF2EFD
:10150000FCE3BF2EF02DC12CD12C76016894F6F8A7
:1015100000E010E020E230E440E050E060EC7FE3E7
:1015200086E191E0DAD00F2EC12CD12CF0ECEF2E19
:10153000F0E4FF2EF02D00E010E020E031E440E088
:1015400050E060E870E482EF90E0C7D01F910F9107
:10155000FF90EF90DF90CF90BF90AF909F908F90D3
:101560000895FC014DEB57E366E875E3408B518B22
:10157000628B738B448B558B668B778B408F518F2F
:10158000628F738F448F558F668F778F40A351A3DF
:1015900062A373A308954F925F926F927F928F928E
:1015A0009F92AF92BF92CF92DF92EF92FF920F93F2
:1015B0001F93CF93DF9300D000D0CDB7DEB78C015F
:1015C000DB016D917C91FA0180819181681B790B1F
:1015D000882777FD8095982FABD26B017C01D801CD
:1015E00058966D937D938D939C935B9754968D91B4
:1015F0009D910D90BC91A02D89839A83AB83BC8370
:10160000F801808B918BA28BB38BC48AD58AE68A32
:10161000F78A4484558466847784248135814681A1
:10162000578160E070E080E89FE3E7D19B01AC0167
:10163000C701B60109D3A301920106D3F801248D95
:10164000358D468D578D75D14B015C01D8015C9667
:101650006D937D938D939C935F9729813A814B8104
:101660005C81C701B60164D1F801208531854285CE
:101670005385EAD2A3019201C0D12B013C01D801CC
:1016800090966D937D938D939C9393972D913D911F
:101690004D915C91C701B601D7D29B01AC01C50148
:1016A000B40147D19B01AC01C301B20142D10DD2BB
:1016B0000F900F900F900F90DF91CF911F910F918E
:1016C000FF90EF90DF90CF90BF90AF909F908F9062
:1016D0007F906F905F904F9008958F929F92AF92FE
:1016E000BF92CF92DF92EF92FF920F931F93CF930F
:1016F000DF93CDB7DEB7FC014083518362837383F0
:101700000483158326833783C086D186E286F386D9
:1017100084869586A686B78624DFDF91CF911F91B8
:101720000F91FF90EF90DF90CF90BF90AF909F9080
:101730008F9008951F920F920FB60F9211242F933E
:101740003F934F935F936F937F938F939F93AF9349
:10175000BF93EF93FF93E0917900F0917A000995A0
:10176000FF91EF91BF91AF919F918F917F916F9179
:101770005F914F913F912F910F900FBE0F901F904F
:1017800018951F920F920FB60F9211242F933F932B
:101790004F935F936F937F938F939F93AF93BF9379
:1017A000EF93FF93E0917300F09174000995FF911E
:1017B000EF91BF91AF919F918F917F916F915F91C9
:1017C0004F913F912F910F900FBE0F901F90189542
:1017D0001F920F920FB60F9211242F933F934F93A6
:1017E0005F936F937F938F939F93AF93BF93EF9389
:1017F000FF93E0917100F09172000995FF91EF91D4
:10180000BF91AF919F918F917F916F915F914F9118
:101810003F912F910F900FBE0F901F9018951F9220
:101820000F920FB60F9211242F933F934F935F9314
:101830006F937F938F939F93AF93BF93EF93FF9398
:10184000E0916F00F09170000995FF91EF91BF91C9
:10185000AF919F918F917F916F915F914F913F9148
:101860002F910F900FBE0F901F9018951F920F92FF
:101870000FB60F9211242F933F934F935F936F9363
:101880007F938F939F93AF93BF93EF93FF93E091D9
:101890007700F09178000995FF91EF91BF91AF919A
:1018A0009F918F917F916F915F914F913F912F9178
:1018B0000F900FBE0F901F9018951F920F920FB6AA
:1018C0000F9211242F933F934F935F936F937F93C6
:1018D0008F939F93AF93BF93EF93FF93E091750026
:1018E000F09176000995FF91EF91BF91AF919F9193
:1018F0008F917F916F915F914F913F912F910F90B9
:101900000FBE0F901F90189590937A0080937900E6
:1019100008959093740080937300089590937200DB
:1019200080937100089590937800809377000895D4
:101930005058BB27AA270ED04DC13ED130F043D11D
:1019400020F031F49F3F11F41EF433C10EF4E09502
:10195000E7FB29C1E92F4FD180F3BA17620773075C
:101960008407950718F071F49EF567C10EF4E095B1
:101970000B2EBA2FA02D0B01B90190010C01CA0149
:10198000A0011124FF27591B99F0593F50F4503EF4
:1019900068F11A16F040A22F232F342F4427585FE6
:1019A000F3CF469537952795A795F0405395C9F7FE
:1019B0007EF41F16BA0B620B730B840BBAF09150B6
:1019C000A1F0FF0FBB1F661F771F881FC2F70EC055
:1019D000BA0F621F731F841F48F487957795679528
:1019E000B795F7959E3F08F0B3CF9395880F08F011
:1019F0009927EE0F9795879508950CD0EBC0E3D00B
:101A000040F0DAD030F021F45F3F19F0CCC0511132
:101A100015C1CFC0F0D098F39923C9F35523B1F382
:101A2000951B550BBB27AA2762177307840738F04D
:101A30009F5F5F4F220F331F441FAA1FA9F333D0AC
:101A40000E2E3AF0E0E830D091505040E695001C60
:101A5000CAF729D0FE2F27D0660F771F881FBB1F1C
:101A6000261737074807AB07B0E809F0BB0B802DF6
:101A7000BF01FF2793585F4F2AF09E3F510568F042
:101A800092C0DCC05F3FECF3983EDCF3869577951F
:101A90006795B795F7959F5FC9F7880F911D969544
:101AA000879597F90895E1E0660F771F881FBB1FA0
:101AB000621773078407BA0720F0621B730B840B4D
:101AC000BA0BEE1F88F7E095089504D06894B11121
:101AD000B5C0089598D088F09F5790F0B92F9927F6
:101AE000B751A0F0D1F0660F771F881F991F1AF029
:101AF000BA95C9F712C0B13081F09FD0B1E0089516
:101B00009CC0672F782F8827B85F39F0B93FCCF396
:101B1000869577956795B395D9F73EF4909580951E
:101B2000709561957F4F8F4F9F4F0895E89409C03E
:101B300097FB3EF490958095709561957F4F8F4F00
:101B40009F4F9923A9F0F92F96E9BB279395F69516
:101B5000879577956795B795F111F8CFFAF4BB0F94
:101B600011F460FF1BC06F5F7F4F8F4F9F4F16C0F8
:101B7000882311F096E911C0772321F09EE8872F82
:101B8000762F05C0662371F096E8862F70E060E03E
:101B90002AF09A95660F771F881FDAF7880F9695B7
:101BA000879597F9089597F99F6780E870E060E05E
:101BB00008959FEF80EC089500240A9416161706E6
:101BC00018060906089500240A941216130614062E
:101BD00005060895092E0394000C11F4882352F091
:101BE000BB0F40F4BF2B11F460FF04C06F5F7F4F49
:101BF0008F4F9F4F089557FD9058440F551F59F030
:101C00005F3F71F04795880F97FB991F61F09F3FE9
:101C100079F087950895121613061406551FF2CF12
:101C20004695F1DF08C0161617061806991FF1CF62
:101C300086957105610508940895E894BB27662789
:101C40007727CB0197F908950BD0C4CFB5DF28F0E3
:101C5000BADF18F0952309F0A6CFABCF1124EECF51
:101C6000CADFA0F3959FD1F3950F50E0551F629FF7
:101C7000F001729FBB27F00DB11D639FAA27F00DE5
:101C8000B11DAA1F649F6627B00DA11D661F829F0C
:101C90002227B00DA11D621F739FB00DA11D621FF1
:101CA000839FA00D611D221F749F3327A00D611D0E
:101CB000231F849F600D211D822F762F6A2F1124F0
:101CC0009F5750408AF0E1F088234AF0EE0FFF1F43
:101CD000BB1F661F771F881F91505040A9F79E3F7A
:101CE000510570F060CFAACF5F3FECF3983EDCF374
:101CF000869577956795B795F795E7959F5FC1F7B7
:101D0000FE2B880F911D9695879597F9089597FB5F
:101D1000072E16F4009406D077FD08D017D007FCE4
:101D200005D03EF4909581959F4F089570956195EB
:101D30007F4F0895A29FB001B39FC001A39F01D020
:101D4000B29F700D811D1124911D0895AA1BBB1B0C
:101D500051E107C0AA1FBB1FA617B70710F0A61BAB
:101D6000B70B881F991F5A95A9F780959095BC01CC
:101D7000CD010895EE0FFF1F0590F491E02D099419
:101D8000E199FECF9FBB8EBBE09A99278DB3089552
:101D9000A8E1B0E042E050E012C0262FE199FECF6A
:101DA0009FBB8EBB2DBB0FB6F894E29AE19A0FBE93
:101DB00001960895F2DF272FF1CFDC01CB01FC0162
:101DC000E199FECF06C0FFBBEEBBE09A31960DB2A3
:0E1DD0000D9241505040B8F70895F894FFCF9F
:101DDE00150215020A00080006000200050401158E
:0C1DEE0002150215021502150215020074
:00000001FF
