:100000006FC0FCC022C123CCFBCB8FC0ABCBD1CB0C
:1000100082CB5ACB8AC089C088C087C086C085C0C1
:1000200084C083C082C08BC3D8C38DC3D6C395C3DD
:10003000D4C39DC3D2C39EC3D0C3A0C3CEC3A8C3E1
:10004000CCC3B0C3CAC3B1C3C8C3B3C3C6C3BBC3A5
:10005000E3C6EAC6F1C608C70FC72FC736C753C7DE
:100060005AC772C779C795C79CC7B9C7C0C7D9C790
:10007000E0C7F8C7FFC71BC822C83FC846C85FC84B
:100080000B17001C110510110E120C18120C121077
:100090001218101212100C18100C12101018101048
:1000A000120C0C0C0A0A0A0E0C180E0C120E0C057F
:1000B0000E0C1D0E0C1008111AFDFBF7EFDFBF5FD1
:1000C000419DD5C3D6DE45DFD7800010CFDA1ED9DB
:1000D0009E8ECA51CB1AC88FC7889AD358001B0A64
:1000E00011241FBECFE5D4E0DEBFCDBF10E0A0E6F7
:1000F000B0E0E2E7FDE102C005900D92AC37B10738
:10010000D9F721E0ACE7B0E001C01D92AA33B207F5
:10011000E1F710E0C0EED0E003C02297FE01F6DD6B
:10012000CE3DD107D1F7B3D822CE6ACF97B1987F11
:1001300097B997B1892B87B9369A3699FECF84B192
:1001400095B108958630A1F028F4882349F08530D0
:1001500051F01FC08830B1F080F08930B1F019C083
:1001600080B38170089580B385FB882780F9089556
:1001700080B386FB882780F9089580B3881F88277D
:10018000881F089586B38170089586B3869581701F
:10019000089580E008951F93CF93DF93EC011881B9
:1001A0008C81D0DF181731F08A81882391F081503B
:1001B0008A830FC08A818F5F8A839B81891748F069
:1001C00081E09881911180E088831A82813009F45E
:1001D0008983DF91CF911F910895CF93DF93EC0135
:1001E000DADF8981813011F4198201C080E0DF916A
:1001F000CF910895FC016483438308951F920F9269
:100200000FB60F9211242F933F934F935F936F93E9
:100210007F938F939F93AF93BF93EF93FF93E0915F
:100220006200F09163000995FF91EF91BF91AF914A
:100230009F918F917F916F915F914F913F912F91FE
:100240000F900FBE0F901F9018951F920F920FB630
:100250000F9211242F933F934F935F936F937F934C
:100260008F939F93AF93BF93EF93FF93E0916000C1
:10027000F09161000995FF91EF91BF91AF919F912E
:100280008F917F916F915F914F913F912F910F903F
:100290000FBE0F901F90189590936300809362009B
:1002A00008958091A6009091A700A091A800B09118
:1002B000A9000196A11DB11D8093A6009093A700EF
:1002C000A093A800B093A9000895949A08959498D3
:1002D00008958091CF009091D00001969093D00026
:1002E0008093CF002091CF003091D0008091D10039
:1002F0009091D200821793070CF4919A089510926E
:10030000D0001092CF0089B7806489BF85B7836021
:1003100085BF8DE891E0C0DF08951092D000109263
:10032000CF0089B78F7B89BF919885B7826085BFE1
:1003300085B78E7F85BF8FE791E0AEDF81E0809348
:10034000CD0008950895823099F028F4882341F073
:10035000813051F019C0833079F0843089F014C0B5
:100360008DEE90E03ADF089588EE90E036DF089554
:1003700083EE90E032DF08958EED90E02EDF089559
:1003800089ED90E02ADF089580E008958091C6000D
:10039000882331F089B7846089BF89B7806189BFBC
:1003A00008958091C600882359F089B78B7F89BF53
:1003B00089B78F7E89BF949882EF90E09CD801C066
:1003C00094981092C80008958091C6008823E9F19E
:1003D0004CEA50E068EB70E082EF90E0A6D8DC01D8
:1003E000CB01880F991FAA1FBB1F880F991FAA1F37
:1003F000BB1F880F991FAA1FBB1F880F991FAA1F19
:10040000BB1F880F991FAA1FBB1F880F991FAA1F08
:10041000BB1F880F991FAA1FBB1F009721E0A207CF
:10042000B1052CF08FEF9FEF9BBD8ABD08958034FE
:100430002FE19207A105B1051CF09BBD8ABD08956F
:1004400080E49FE19BBD8ABD08958091AC009091AE
:10045000AD0002962091B8003091B9008217930741
:100460000CF4949A8091AC009091AD00029620918A
:10047000B8003091B900281739070CF49498089502
:100480008BB78F7B8BBF89B78F7B89BF919881E0BA
:100490008093CC001092C90086E191E02CD8089599
:1004A000FF920F931F93CF93DF9300EB10E0C8E907
:1004B000D0E0F12CF3948F2D39DEFE0128813981B3
:1004C000AC01421B530B423051054CF0D8012D9129
:1004D0003C9111972F5F3F4F2D933C9310C0281BE9
:1004E000390B2230310544F0D8018D919C91119740
:1004F00001978D939C9303C0D8018D939C93D80151
:100500002D913D918D01318320832296B4E0FB1221
:10051000D1CFDF91CF911F910F91FF900895C0DF50
:100520008091B0009091B100959587959093B90016
:100530008093B8008091B2009091B3009595879513
:100540009093BB008093BA004091B4005091B500E5
:100550002091BC003091BD00429FC001439F900D8F
:10056000529F900D112464E670E09BDB8091C000E7
:100570009091C100681779072CF41092AD00109289
:10058000AC0006C0681B790B7093AD006093AC00A3
:100590004091B6005091B7002091BE003091BF004D
:1005A000429FC001439F900D529F900D112464E61D
:1005B00070E077DB8091C2009091C300680F791FD3
:1005C0007093AF006093AE008091C900882329F139
:1005D0004EEA50E06AEB70E086E191E0A6D7623324
:1005E00071053CF48FE392E09093D2008093D100A8
:1005F0000895603442E0740754F421E732E0C90101
:10060000861B970B9093D2008093D100089582E3CC
:1006100090E09093D2008093D1000895CF93DF9320
:10062000A0EAB0E080E090E028EC30E0C9ECD0E057
:10063000ED91F0E0E154FF4F5491F90140814130D8
:1006400021F4823011F4506206C04881413019F41F
:10065000853009F450625FB9779BFECFFC01E75407
:10066000FF4FE491EFB9779BFECFC29AC298EFE8B3
:10067000F1E03197F1F700C0000001968630910556
:10068000B9F6DF91CF910895A82FB0E0A056BF4FE3
:1006900050E0CA01880F991F480F591F20E030E031
:1006A000CA0189559F4F40585F4F662319F061304A
:1006B00039F00BC0FC01E20FF31FE491EC9305C08D
:1006C000FA01E20FF31FE491EC932F5F3F4F119675
:1006D0002330310551F70895882331F04091C4004B
:1006E00061E083E0D1DF05C04091C40061E080E0BB
:1006F000CBDF81E00895CF92DF92EF92FF920F93CC
:100700001F93CF93DF9300D000D000D0CDB7DEB7DA
:100710001E821D821C821B821A8219828091D30044
:10072000813009F07AC080916E0090E0FC01329730
:10073000E531F10508F051C0ED5EFF4F099481E00D
:10074000CBDF182F2DC281E08E838091C400909161
:10075000C5009C838B8310E023C281E08D83809150
:10076000C4009091C5009A83898310E019C280E08B
:10077000B3DF34C081E0B0DF182F12C281E08E8376
:100780008091C4009091C5009C838B8310E008C2C7
:1007900081E08D838091C4009091C5009A83898304
:1007A00010E0FEC180E098DF19C081E095DF182FCE
:1007B000F7C181E08E838091C4009091C5009C8335
:1007C0008B8310E0EDC181E08D838091C400909116
:1007D000C5009A83898310E0E3C180E09E81911176
:1007E00004C0882359F010E001C010E040916E0071
:1007F00046954F5F61E083E047DF01C010E08D81E7
:10080000811103C0112309F4A4C040916E004695E4
:100810004F5F61E080E038DF9CC081119AC0F091A9
:10082000A600E091A7007091A8006091A9008091B6
:10083000900090919100A0919200B091930020912E
:10084000B8003091B9004091940050919500421B3E
:10085000530B4D5F5F4F4730510540F0309395008B
:10086000209394008F2F9E2FA72FB62F2091BA0090
:100870003091BB004091960050919700421B530B62
:100880004D5F5F4F4730510540F030939700209304
:1008900096008F2F9E2FA72FB62F809390009093B6
:1008A0009100A0939200B09393004091A6005091C4
:1008B000A7006091A8007091A9008A019B01081B04
:1008C000190B2A0B3B0B0A3711052105310580F462
:1008D00081E08E838D838091B8009091B9009C83D4
:1008E0008B838091BA009091BB009A83898331C039
:1008F0008091C80081110CC08091B4009091B50026
:100900008B3892402CF01E824CE061E080E0BCDE2F
:1009100081E08E838091AC009091AD009C838B83AD
:100920008091C90081110DC08091B6009091B700EF
:100930008B38924034F01D824CE061E083E0A4DE0D
:1009400008C081E08D838091AE009091AF009A83C2
:1009500089838E81882361F1E3EAF0E000EA10E008
:100960004B815C819A01ADECBCECAED99695879534
:1009700096958795969587959C01220F331F880F32
:10098000991F880F991F880F991F820F931F481B6B
:10099000590B42932B813C8197D9969587959695D3
:1009A0008795969587959C838B83E017F107C1F611
:1009B0008D81882361F1E6EAF0E003EA10E04981E5
:1009C0005A819A01ADECBCEC7FD9969587959695A6
:1009D0008795969587959C01220F331F880F991F45
:1009E000880F991F880F991F820F931F481B590B5F
:1009F000429329813A8168D99695879596958795EE
:100A0000969587959A838983E017F107C1F68091BF
:100A1000D3008111C9C08091A6009091A700A09138
:100A2000A800B091A90040918C0050918D00609178
:100A30008E0070918F00841B950BA60BB70B4F9700
:100A4000A105B10508F46FC08091C9008823C9F0E1
:100A50008091CD00882329F01092CD0010928B0058
:100A600010C080918B00882339F00ADD8091CA0084
:100A700081608093CA0005C01092CD0081E0809310
:100A80008B008091C8008823E9F08091AC009091A0
:100A9000AD002091B8003091B900821B930B4F97A5
:100AA0007CF080918A00882339F07BDC8091CB0038
:100AB00082608093CB0006C081E080938A0002C0F0
:100AC00010928A008091C9008823E9F08091AE00DD
:100AD0009091AF002091BA003091BB00821B930B24
:100AE0004F977CF080918900882339F0C9DC809190
:100AF000CA0082608093CA0006C081E080938900AA
:100B000002C0109289008091A6009091A700A09148
:100B1000A800B091A90080938C0090938D00A093C1
:100B20008E00B0938F00E091CB00F0E06091CA009E
:100B300070E0C090A000D090A100E090A200F090E2
:100B4000A3000091A4001091A50087E090E0BAE115
:100B5000A1E1282FAF01082E02C0559547950A94B0
:100B6000E2F740FF03C0E82EDB2ECA2EAB0102C025
:100B7000559547952A95E2F740FF03C0182F0B2F94
:100B8000FA2E019730F7C092A000D092A100E09217
:100B9000A200F092A3000093A4001093A50004C04B
:100BA0008E81811123CE2BCE26960FB6F894DEBF10
:100BB0000FBECDBFDF91CF911F910F91FF90EF90AE
:100BC000DF90CF900895CF93209188002C3090F53E
:100BD0008091A6009091A700A091A800B091A900D3
:100BE000409184005091850060918600709187004B
:100BF000435C5F4F6F4F7F4F481759076A077B076A
:100C000008F04BC02093A0002093A1002093A200E5
:100C10002093A3002093A4002093A5008093840038
:100C200090938500A0938600B09387002F5F209358
:100C3000880033C08091A6009091A700A091A800E1
:100C4000B091A90040918400509185006091860088
:100C50007091870048515C4F6F4F7F4F8417950705
:100C6000A607B707C0F4CE97A105B105B0F0C0E064
:100C70008C2F69DB882329F04C2F60E080E004DDB5
:100C800003C0CF5FC630A1F78FEB9DE50197F1F769
:100C900000C0000002C01092CE00CF91089582E003
:100CA00052DB882359F081E08093D30080936E005B
:100CB0001092C8001092C90074DBE2DB80E043DBD5
:100CC000882361F081E09091C800911180E08093C9
:100CD000C800882311F05ADB01C063DB8091C70094
:100CE000882351F181E02FDB882381F081E090910E
:100CF000C900911180E08093C900882329F0939A5C
:100D00008BB780648BBF2BC0BBDB29C08091D40024
:100D1000882331F08091C900882309F1B1DB1FC01D
:100D20008091C90081111BC081E08093C900939A12
:100D30008BB780648BBF13C081E005DB882379F01B
:100D400081E09091C900911180E08093C9008823CF
:100D500029F0939A8BB780648BBF01C091DB84E04C
:100D6000F2DA882321F01092CB001092CA00089585
:100D7000CF93DF93FC01C081D18183E0E4DA882343
:100D800031F081E0CD2B09F080E0C82FD0E084E085
:100D9000DADA882331F081E0CD2B09F080E0C82F2A
:100DA000D0E082E0D0DA882329F080916E008F5F56
:100DB00080936E00CE01DF91CF910895CF93DF93A2
:100DC000FC01C081D18183E0BEDA8111219684E0EB
:100DD000BADA8111219782E0B6DA882329F080916E
:100DE0006E008F5F80936E00CE01DF91CF910895EA
:100DF000FF920F931F93CF93DF931F92CDB7DEB770
:100E000080916E0090E0FC013197E831F10508F027
:100E10009BC1E85DFF4F09941092C5001092C40079
:100E200082E080936E0090C184EC90E0A1DF90930B
:100E3000C5008093C40088C18091C4009091C50012
:100E4000019739F481E08093CE0088E180936E00B1
:100E50007BC188E690E066D79093C5008093C4007C
:100E600084E080936E0070C184EC90E0A7DF9093E3
:100E7000C5008093C40068C10091C4001091C500F2
:100E800088E690E04FD70817190761F0B80188E6A7
:100E900090E05AD78091C4009091C5009093BD0016
:100EA0008093BC0086E690E03DD79093C500809388
:100EB000C40086E080936E0047C184EC90E07EDF42
:100EC0009093C5008093C4003FC10091C40010916D
:100ED000C50086E690E026D70817190761F0B8012B
:100EE00086E690E031D78091C4009091C500909340
:100EF000BF008093BE001092C5001092C40088E02D
:100F000080936E0021C184EC90E032DF9093C500A5
:100F10008093C40019C18091C4009091C5000197CD
:100F200059F48BE490E09093BD008093BC006BE497
:100F300070E088E690E008D71092C5001092C400D7
:100F40008AE080936E0000C184EC90E011DF909302
:100F5000C5008093C400F8C08091C4009091C50082
:100F6000019759F48DE790E09093BF008093BE0005
:100F70006DE770E086E690E0E7D68091C000909142
:100F8000C1009093C5008093C4008CE080936E00F4
:100F9000DBC084EC90E012DF9093C5008093C40026
:100FA000D3C06091C4007091C5008091C000909141
:100FB000C1008617970739F07093C1006093C00095
:100FC0008AEA90E0C1D68091C2009091C3009093CC
:100FD000C5008093C4008EE080936E00B5C084ECA1
:100FE00090E0ECDE9093C5008093C400ADC06091AA
:100FF000C4007091C5008091C2009091C300861713
:10100000970739F07093C3006093C2008AE690E0BE
:101010009BD61092C5001092C40080E180936E00B0
:1010200093C084EC90E0A4DE9093C5008093C4004C
:101030008BC08091C4009091C500019759F48FE056
:1010400090E09093C1008093C0006FE070E08AEA66
:1010500090E07AD61092C5001092C40082E180938D
:101060006E0072C084EC90E083DE9093C5008093A4
:10107000C4006AC08091C4009091C500019759F4E2
:1010800084E190E09093C3008093C20064E170E03B
:101090008AE690E059D68DE690E03CD690E09093B9
:1010A000C5008093C40084E180936E004DC084EC41
:1010B00090E05EDE9093C5008093C40045C08DE64D
:1010C00090E028D66091C4007091C50090E086172A
:1010D000970739F08DE690E02AD68091C40080937E
:1010E000C6008CE690E016D690E09093C500809301
:1010F000C40086E180936E0027C084EC90E038DE67
:101100009093C5008093C4001FC08CE690E002D687
:101110006091C4007091C50090E08617970739F080
:101120008CE690E004D68091C4008093C6001092B3
:10113000C5001092C40088E180936E0005C0109233
:10114000D30081E080936E001982FF24F39400E0C5
:1011500010E0CE010196DED5080F111DF982F3943F
:101160008BE0F812F6CFB80184E690E0EDD50F9051
:10117000DF91CF911F910F91FF90089581B38A6104
:1011800081BB87B38C6287BB81B38A7181BB87B314
:101190008C7F87BB82B3816E82BB88B3836088BB40
:1011A00088B3837D88BB83B7887F83BF83B785601F
:1011B00083BF89B7816089BF81E591E06FD38EB528
:1011C000887F8EBD8EB581608EBD85E691E06BD344
:1011D00087E691E06DD385B5887F85BD85B5816053
:1011E00085BD89E691E069D38FE791E055D885B751
:1011F000826085BF85B78E7F85BF379A87B18F7331
:1012000087B986B1887F86B986B1876086B98DB186
:1012100080658DB96D98709A1FB8779BFECF1FB807
:10122000779BFECFC29AC2988AEA90E07BD59093D2
:10123000C1008093C0008AE690E074D59093C3000B
:101240008093C20088E690E06DD59093BD008093B6
:10125000BC0086E690E066D59093BF008093BE0008
:101260008DE690E057D58093C6008CE690E052D58D
:101270008093C70096D804D92FE088E190E00FB69C
:10128000F894A89581BD0FBE21BD78940895CF93A1
:10129000DF931F92CDB7DEB771DF44E062E080E0FC
:1012A000F3D904B600FCBFC081E090E024B730E081
:1012B000082E02C0359527950A94E2F720FF26C034
:1012C0008093A2001982B2C0CE01019623D5080FE7
:1012D000111DF982F3948BE0F812F6CF84E690E0CA
:1012E00021D50817190729F08091CB0081608093E0
:1012F000CB008091A6009091A700A091A800B0918A
:10130000A900C797A105B10530F013C0019684303C
:10131000910561F6EECF82D9A8958091A6009091B3
:10132000A700A091A800B091A900C797A105B10599
:1013300090F308EC10E00F2EF6EBEF2EF0E0FF2E0E
:10134000F02D8091CE0081116AC08091A60090910D
:10135000A700A091A800B091A900409180005091F1
:1013600081006091820070918300841B950BA60B15
:10137000B70B0D97A105B10588F0BDD98091A600E6
:101380009091A700A091A800B091A900809380003F
:1013900090938100A0938200B093830040917C00E1
:1013A00050917D0060917E0070917F008091A60039
:1013B0009091A700A091A800B091A90048175907E3
:1013C0006A077B0769F1ABD8F80180818111FCD7EE
:1013D0008091D300882319F0813019F003C05FDCBD
:1013E00001C006DD8091CC00813041F4F70180819D
:1013F000918102971CF493981092CC008091A600E2
:101400009091A700A091A800B091A90080937C00C2
:1014100090937D00A0937E00B0937F0001C0D3DB4A
:10142000FDD8A8958ECF1092A2001982FF24F394C4
:1014300000E010E049CF8F929F92AF92BF92CF927F
:10144000DF92EF92FF920F931F930F2EF4E98F2EEE
:10145000F7E89F2EF5E8AF2EFCE3BF2EF02DC12C50
:10146000D12C76016894F6F800E010E020E230E438
:1014700040E050E060EC7FE386E191E0F8D00F2E91
:10148000C12CD12CF0ECEF2EF0E4FF2EF02D00E07B
:1014900010E020E031E440E050E060E870E482EFEA
:1014A00090E0E5D04FE065E08DEE90E0A3D64FE010
:1014B00066E088EE90E09ED64FE067E083EE90E035
:1014C00099D64AE068E08EED90E094D64AE069E073
:1014D00089ED90E08FD64AE060E084ED90E08AD616
:1014E0001F910F91FF90EF90DF90CF90BF90AF9042
:1014F0009F908F900895FC014DEB57E366E875E3EC
:10150000408B518B628B738B448B558B668B778BA7
:10151000408F518F628F738F448F558F668F778F77
:1015200040A351A362A373A308954F925F926F9259
:101530007F928F929F92AF92BF92CF92DF92EF9263
:10154000FF920F931F93CF93DF9300D000D0CDB7BE
:10155000DEB78C01DB016D917C91FA018081918174
:10156000681B790B882777FD8095982FABD26B018C
:101570007C01D80158966D937D938D939C935B97D6
:1015800054968D919D910D90BC91A02D89839A8345
:10159000AB83BC83F801808B918BA28BB38BC48A05
:1015A000D58AE68AF78A44845584668477842481C0
:1015B00035814681578160E070E080E89FE3E7D1A4
:1015C0009B01AC01C701B60109D3A301920106D367
:1015D000F801248D358D468D578D75D14B015C01F9
:1015E000D8015C966D937D938D939C935F97298131
:1015F0003A814B815C81C701B60164D1F801208535
:10160000318542855385EAD2A3019201C0D12B01D5
:101610003C01D80190966D937D938D939C93939705
:101620002D913D914D915C91C701B601D7D29B019F
:10163000AC01C501B40147D19B01AC01C301B201AA
:1016400042D10DD20F900F900F900F90DF91CF915C
:101650001F910F91FF90EF90DF90CF90BF90AF90D0
:101660009F908F907F906F905F904F9008958F9292
:101670009F92AF92BF92CF92DF92EF92FF920F9321
:101680001F93CF93DF93CDB7DEB7FC014083518327
:10169000628373830483158326833783C086D18650
:1016A000E286F38684869586A686B78624DFDF9158
:1016B000CF911F910F91FF90EF90DF90CF90BF904F
:1016C000AF909F908F9008951F920F920FB60F9238
:1016D00011242F933F934F935F936F937F938F9337
:1016E0009F93AF93BF93EF93FF93E0917900F091B5
:1016F0007A000995FF91EF91BF91AF919F918F91E2
:101700007F916F915F914F913F912F910F900FBEFD
:101710000F901F9018951F920F920FB60F921124E1
:101720002F933F934F935F936F937F938F939F93E9
:10173000AF93BF93EF93FF93E0917300F091740028
:101740000995FF91EF91BF91AF919F918F917F91FB
:101750006F915F914F913F912F910F900FBE0F901E
:101760001F9018951F920F920FB60F9211242F936E
:101770003F934F935F936F937F938F939F93AF9319
:10178000BF93EF93FF93E0917100F0917200099580
:10179000FF91EF91BF91AF919F918F917F916F9149
:1017A0005F914F913F912F910F900FBE0F901F901F
:1017B00018951F920F920FB60F9211242F933F93FB
:1017C0004F935F936F937F938F939F93AF93BF9349
:1017D000EF93FF93E0916F00F09170000995FF91F6
:1017E000EF91BF91AF919F918F917F916F915F9199
:1017F0004F913F912F910F900FBE0F901F90189512
:101800001F920F920FB60F9211242F933F934F9375
:101810005F936F937F938F939F93AF93BF93EF9358
:10182000FF93E0917700F09178000995FF91EF9197
:10183000BF91AF919F918F917F916F915F914F91E8
:101840003F912F910F900FBE0F901F9018951F92F0
:101850000F920FB60F9211242F933F934F935F93E4
:101860006F937F938F939F93AF93BF93EF93FF9368
:10187000E0917500F09176000995FF91EF91BF918D
:10188000AF919F918F917F916F915F914F913F9118
:101890002F910F900FBE0F901F90189590937A0084
:1018A0008093790008959093740080937300089555
:1018B00090937200809371000895909378008093C4
:1018C000770008955058BB27AA270ED04DC13ED1AE
:1018D00030F043D120F031F49F3F11F41EF433C1B6
:1018E0000EF4E095E7FB29C1E92F4FD180F3BA1739
:1018F000620773078407950718F071F49EF567C1B6
:101900000EF4E0950B2EBA2FA02D0B01B90190011A
:101910000C01CA01A0011124FF27591B99F0593F5E
:1019200050F4503E68F11A16F040A22F232F342FA6
:101930004427585FF3CF469537952795A795F040F4
:101940005395C9F77EF41F16BA0B620B730B840B09
:10195000BAF09150A1F0FF0FBB1F661F771F881FC1
:10196000C2F70EC0BA0F621F731F841F48F4879519
:1019700077956795B795F7959E3F08F0B3CF939508
:10198000880F08F09927EE0F9795879508950CD04A
:10199000EBC0E3D040F0DAD030F021F45F3F19F033
:1019A000CCC0511115C1CFC0F0D098F39923C9F321
:1019B0005523B1F3951B550BBB27AA276217730755
:1019C000840738F09F5F5F4F220F331F441FAA1F09
:1019D000A9F333D00E2E3AF0E0E830D091505040C9
:1019E000E695001CCAF729D0FE2F27D0660F771F77
:1019F000881FBB1F261737074807AB07B0E809F059
:101A0000BB0B802DBF01FF2793585F4F2AF09E3FED
:101A1000510568F092C0DCC05F3FECF3983EDCF308
:101A2000869577956795B795F7959F5FC9F7880F66
:101A3000911D9695879597F90895E1E0660F771FB8
:101A4000881FBB1F621773078407BA0720F0621B49
:101A5000730B840BBA0BEE1F88F7E095089504D042
:101A60006894B111B5C0089598D088F09F5790F050
:101A7000B92F9927B751A0F0D1F0660F771F881FB3
:101A8000991F1AF0BA95C9F712C0B13081F09FD0F2
:101A9000B1E008959CC0672F782F8827B85F39F090
:101AA000B93FCCF3869577956795B395D9F73EF412
:101AB00090958095709561957F4F8F4F9F4F0895BA
:101AC000E89409C097FB3EF49095809570956195D8
:101AD0007F4F8F4F9F4F9923A9F0F92F96E9BB278E
:101AE0009395F695879577956795B795F111F8CF0A
:101AF000FAF4BB0F11F460FF1BC06F5F7F4F8F4F75
:101B00009F4F16C0882311F096E911C0772321F06A
:101B10009EE8872F762F05C0662371F096E8862F02
:101B200070E060E02AF09A95660F771F881FDAF759
:101B3000880F9695879597F9089597F99F6780E89C
:101B400070E060E008959FEF80EC089500240A940F
:101B50001616170618060906089500240A94121688
:101B60001306140605060895092E0394000C11F4BB
:101B7000882352F0BB0F40F4BF2B11F460FF04C068
:101B80006F5F7F4F8F4F9F4F089557FD9058440FC1
:101B9000551F59F05F3F71F04795880F97FB991FCC
:101BA00061F09F3F79F08795089512161306140689
:101BB000551FF2CF4695F1DF08C016161706180616
:101BC000991FF1CF86957105610508940895E894F1
:101BD000BB2766277727CB0197F908950BD0C4CF91
:101BE000B5DF28F0BADF18F0952309F0A6CFABCF08
:101BF0001124EECFCADFA0F3959FD1F3950F50E0EB
:101C0000551F629FF001729FBB27F00DB11D639FAE
:101C1000AA27F00DB11DAA1F649F6627B00DA11D54
:101C2000661F829F2227B00DA11D621F739FB00DFA
:101C3000A11D621F839FA00D611D221F749F33276A
:101C4000A00D611D231F849F600D211D822F762F03
:101C50006A2F11249F5750408AF0E1F088234AF000
:101C6000EE0FFF1FBB1F661F771F881F915050404C
:101C7000A9F79E3F510570F060CFAACF5F3FECF30C
:101C8000983EDCF3869577956795B795F795E79538
:101C90009F5FC1F7FE2B880F911D9695879597F949
:101CA000089597FB072E16F4009406D077FD08D010
:101CB00017D007FC05D03EF4909581959F4F08956D
:101CC000709561957F4F0895A29FB001B39FC001A9
:101CD000A39F01D0B29F700D811D1124911D089505
:101CE000AA1BBB1B51E107C0AA1FBB1FA617B70742
:101CF00010F0A61BB70B881F991F5A95A9F780955E
:101D00009095BC01CD010895EE0FFF1F0590F49151
:101D1000E02D0994E199FECF9FBB8EBBE09A9927F5
:101D20008DB30895A8E1B0E042E050E012C0262F44
:101D3000E199FECF9FBB8EBB2DBB0FB6F894E29A04
:101D4000E19A0FBE01960895F2DF272FF1CFDC0153
:101D5000CB01FC01E199FECF06C0FFBBEEBBE09AD0
:101D600031960DB20D9241505040B8F70895F89455
:021D7000FFCFA3
:101D7200A201A2010A00080006000200050401A255
:0C1D820001A201A201A201A201A2010025
:00000001FF
