:100000000C9499000C94ED020C941D030C94C10007
:100010000C94C1000C94C1000C94C1000C94B21556
:100020000C94E2150C9482150C94C1000C942215CA
:100030000C9452150C94F2140C94C1000C94C10051
:100040000C94C2140C94C1000C94C1000C94C10017
:100050000C94C1000C94C1000C94C1000C94C1001C
:100060000C94C1000C94C100D309220AD809220AB9
:10007000E109220AEA09220AEF09220AF409220AFE
:10008000FD09220A060A220A0B0A220A100A220A7B
:10009000190A510E590E620E7C0E850EAE0EB70E69
:1000A000DC0EE50E030F0C0F2E0F370F5F0F680FDE
:1000B0008C0F950FB30FBC0FE00FE90F13101C103E
:1000C00040105F419DD5C3D6DE45DFD7800010CFFD
:1000D000DA1ED99E8ECA51CB1AC88FC7889AD358B8
:1000E000FDFBF7EFDFBF0E0C180E0C120E0C050E09
:1000F0000C1D0E0C1008111A0B101A0E001A111BF1
:100100001A18001A1A1A0B0B17001C110510110EE1
:10011000120C18120C12101218101212100C1810C7
:100120000C121010181010120C0C0C0A0A0AE00223
:10013000021311241FBECFEFD8E0DEBFCDBF11E008
:10014000A0E0B1E0EAECF1E302C005900D92AE311F
:10015000B107D9F721E0AEE1B1E001C01D92A03EA8
:10016000B207E1F711E0C2E3D1E004C02297FE013B
:100170000E948B18CE32D107C9F70E949A110C94B5
:10018000E3180C940000CF93DF93CDB7DEB78AE776
:1001900090E02AE730E0F90120812068FC0120830B
:1001A0008AE790E02AE730E0F9012081287FFC010E
:1001B00020838AE790E02AE730E0F9012081276078
:1001C000FC0120838CE790E02CE730E0F9012081EE
:1001D0002F73FC012083DF91CF910895CF93DF939C
:1001E0001F92CDB7DEB789838CE790E02CE730E033
:1001F000F9012081287FFC0120838CE790E02CE727
:1002000030E0F90130812981232BFC0120838AE72A
:1002100090E02AE730E0F90120812064FC0120838E
:1002200000008AE790E0FC018081882F90E08074D4
:10023000992721E0009709F420E0222391F788E72D
:1002400090E0FC01808191810F90DF91CF91089522
:10025000CF93DF931F92CDB7DEB789838981882F33
:1002600090E08230910561F18330910534F400977C
:1002700059F081309105B1F04DC08330910571F195
:1002800084309105C9F146C08EE191E00E942502BB
:1002900080911F01813021F410921F0181E03BC049
:1002A00080E039C083E291E00E9425028091240120
:1002B000813021F41092240181E02DC080E02BC018
:1002C00088E291E00E94250280912901813021F489
:1002D0001092290181E01FC080E01DC08DE291E0F5
:1002E0000E94250280912E01813021F410922E016E
:1002F00081E011C080E00FC082E391E00E942502FE
:1003000080913301813021F41092330181E003C0E8
:1003100080E001C080E00F90DF91CF910895CF93EE
:10032000DF931F92CDB7DEB789838981882F90E054
:1003300086309105C9F18730910534F4009781F03A
:1003400085309105F9F073C08830910509F44BC0F0
:1003500088309105DCF18930910509F456C067C0F9
:1003600089E290E0FC018081882F90E081709927DC
:1003700021E0009709F420E0222311F081E058C029
:1003800080E056C089E290E0FC018081882F90E0F7
:100390008072992721E0009709F420E0222311F0D0
:1003A00081E046C080E044C089E290E0FC018081A9
:1003B000882F90E08074992721E0009709F420E0CD
:1003C000222311F081E034C080E032C089E290E065
:1003D000FC018081881F8827881F882311F081E015
:1003E00027C080E025C083E290E0FC018081882F57
:1003F00090E08170992721E0009709F420E0222302
:1004000011F081E015C080E013C083E290E0FC01B0
:100410008081882F90E08270992721E0009709F46D
:1004200020E0222311F081E003C080E001C080E0E1
:100430000F90DF91CF910895CF93DF93CDB7DEB7C3
:1004400080913701DF91CF9108951F93CF93DF9370
:1004500000D0CDB7DEB79A83898389819A81FC0168
:10046000108189819A81FC0184810E948F01982FDB
:1004700081E0191709F480E0882389F089819A8145
:10048000FC0182818823D9F189819A81FC018281D2
:100490002FEF280F89819A81FC01228330C0898146
:1004A0009A81FC01828121E0280F89819A81FC01D7
:1004B000228389819A81FC01228189819A81FC01B0
:1004C00083812817E0F089819A81FC01908181E085
:1004D000992309F080E0282F89819A81FC012083EB
:1004E00089819A81FC01128289819A81FC01808133
:1004F000813029F489819A8121E0FC0121830F90C8
:100500000F90DF91CF911F910895CF93DF9300D08B
:1005100000D0CDB7DEB79A8389836B834C83898102
:100520009A812B81FC01248389819A812C81FC0191
:1005300023830F900F900F900F90DF91CF9108952C
:10054000CF93DF9300D000D0CDB7DEB79A838983F5
:100550007C836B8389819A818130910551F58B81F0
:100560009C818F3F2FEF920721F54FE065E08EE1F0
:1005700091E00E9485024FE066E083E291E00E94F4
:1005800085024FE067E088E291E00E9485024AE040
:1005900068E08DE291E00E9485024AE069E082E332
:1005A00091E00E9485024AE060E087E391E00E94CA
:1005B00085020F900F900F900F90DF91CF910895CB
:1005C000CF93DF93CDB7DEB76FEF7FEF81E090E0A1
:1005D0000E94A002DF91CF9108951F920F92009088
:1005E0005F000F9211242F933F934F935F936F936C
:1005F0007F938F939F93AF93BF93EF93FF93CF938B
:10060000DF93CDB7DEB78091000190910101FC012D
:100610000995DF91CF91FF91EF91BF91AF919F919C
:100620008F917F916F915F914F913F912F910F909B
:1006300000925F000F901F9018951F920F920090EC
:100640005F000F9211242F933F934F935F936F930B
:100650007F938F939F93AF93BF93EF93FF93CF932A
:10066000DF93CDB7DEB78091020190910301FC01C9
:100670000995DF91CF91FF91EF91BF91AF919F913C
:100680008F917F916F915F914F913F912F910F903B
:1006900000925F000F901F901895CF93DF9300D0CA
:1006A000CDB7DEB79A83898389819A8190930101BE
:1006B000809300010F900F90DF91CF910895CF9319
:1006C000DF93CDB7DEB7DF91CF910895CF93DF935E
:1006D000CDB7DEB78091AE019091AF01A091B0018E
:1006E000B091B1010196A11DB11D8093AE0190930F
:1006F000AF01A093B001B093B101DF91CF91089504
:10070000CF93DF93CDB7DEB78BE290E02BE230E002
:10071000F90120812061FC012083DF91CF910895B0
:10072000CF93DF93CDB7DEB78BE290E02BE230E0E2
:10073000F90120812F7EFC012083DF91CF91089564
:10074000CF93DF93CDB7DEB780919001882391F0EE
:100750008FE690E02FE630E0F90120812160FC0176
:1007600020838FE690E02FE630E0F90120812260BF
:10077000FC012083DF91CF910895CF93DF93CDB714
:10078000DEB780919001882301F18FE690E02FE69B
:1007900030E0F90120812E7FFC0120838FE690E07C
:1007A0002FE630E0F90120812D7FFC0120838BE2D0
:1007B00090E02BE230E0F90120812F7EFC012083C4
:1007C00080E691E00E940F1309C08BE290E02BE2DB
:1007D00030E0F90120812F7EFC01208310928E01F0
:1007E000DF91CF910895CF93DF9300D000D0CDB7A4
:1007F000DEB780919001882309F45EC048EA51E099
:100800006CE971E080E691E00E945213DC01CB01BB
:1008100089839A83AB83BC8389819A81AB81BC81B4
:10082000880F991FAA1FBB1F880F991FAA1FBB1FE4
:10083000880F991FAA1FBB1F880F991FAA1FBB1FD4
:10084000880F991FAA1FBB1F880F991FAA1FBB1FC4
:10085000880F991FAA1FBB1F89839A83AB83BC8310
:1008600089819A81AB81BC81009721E0A207B10503
:1008700044F088E890E02FEF3FEFFC0131832083C4
:100880001AC089819A81AB81BC818034FFE19F07C6
:10089000A105B10544F088E890E029813A81FC0186
:1008A0003183208308C088E890E020E43FE1FC0128
:1008B000318320832BC02AC020919C0130919D015F
:1008C0008091A8019091A9010296821793074CF498
:1008D0008BE290E02BE230E0F90120812061FC0105
:1008E000208320919C0130919D018091A8019091DD
:1008F000A9010296281739074CF48BE290E02BE20D
:1009000030E0F90120812F7EFC0120830F900F90B1
:100910000F900F90DF91CF910895CF93DF93CDB7D4
:10092000DEB78DE390E02DE330E0F90120812E7FEA
:10093000FC01208380E790E020E730E0F90120818E
:100940002E7FFC0120838BE290E02BE230E0F90166
:1009500020812D7FFC01208381E080938B01109208
:100960008F018CE391E00E940F13DF91CF910895E6
:10097000CF93DF93CDB7DEB7809187019091880147
:10098000019690938801809387012091870130918F
:100990008801809185019091860141E0821793073B
:1009A0000CF040E0442349F08BE290E02BE230E091
:1009B000F90120812260FC012083DF91CF9108950D
:1009C000CF93DF93CDB7DEB71092880110928701E5
:1009D00080E790E020E730E0F90120812160FC0110
:1009E000208389E690E029E630E0F9012081236048
:1009F000FC01208381E095E00E944D03DF91CF91BF
:100A00000895CF93DF93CDB7DEB71092880110928F
:100A1000870180E790E020E730E0F90120812E7F18
:100A2000FC0120838BE290E02BE230E0F901208191
:100A30002D7FFC01208389E690E029E630E0F90172
:100A400020812260FC01208385E590E025E530E0EF
:100A5000F90120812E7FFC01208380EE94E00E942A
:100A60004D0381E080938A01DF91CF910895CF9368
:100A7000DF9300D01F92CDB7DEB71B821A82198296
:100A80007DC089818F5F0E94EE009B838A8389816C
:100A9000882F90E0880F991F88549E4FFC01808119
:100AA00091812A813B81A901481B590BCA018230DF
:100AB0009105BCF08981882F90E02981222F30E0B8
:100AC000220F331F20563E4FF901208131812F5FC5
:100AD0003F4F880F991F80569E4FFC013183208322
:100AE00036C08981882F90E0880F991F88549E4FC7
:100AF000FC01208131818A819B81A901481B590B0E
:100B0000CA0182309105BCF08981882F90E029814B
:100B1000222F30E0220F331F20563E4FF901208153
:100B2000318121503109880F991F80569E4FFC0159
:100B3000318320830CC08981882F90E0880F991F12
:100B400080569E4F2A813B81FC013183208389811D
:100B5000882F90E02981222F30E0220F331F20566A
:100B60003E4FF90120813181880F991F88549E4F93
:100B7000FC013183208389818F5F8983898184305F
:100B800008F47FCF0F900F900F90DF91CF910895D1
:100B9000CF93DF9300D000D000D0CDB7DEB70E9456
:100BA00037058091A0019091A1019595879590932B
:100BB0009D0180939C018091A2019091A301959544
:100BC000879590939F0180939E014091A40150913D
:100BD000A5012091980130919901429FC001439F46
:100BE000900D529F900D112424E630E0B9010E942F
:100BF0007518CB019093A9018093A80120919401CD
:100C0000309195018091A8019091A90182179307D5
:100C10002CF41092A9011092A80110C02091A801F3
:100C20003091A9018091940190919501A901481BEF
:100C3000590BCA019093A9018093A8014091A60184
:100C40005091A70120919A0130919B01429FC001D0
:100C5000439F900D529F900D112424E630E0B9017E
:100C60000E947518CB019093AB018093AA0120914B
:100C7000AA013091AB018091960190919701820F6A
:100C8000931F9093AB018093AA0180918F018823D9
:100C900091F14AEA51E06EE971E08CE391E00E9443
:100CA0005213DC01CB019A83898389819A81823333
:100CB00091053CF48FE392E0909386018093850147
:100CC0001AC089819A81803452E095076CF421E73B
:100CD00032E089819A81A901481B590BCA0190937E
:100CE00086018093850107C082E390E0909386019E
:100CF0008093850100C026960FB6F894DEBF0FBE24
:100D0000CDBFDF91CF910895CF93DF93CDB7DEB7FD
:100D1000A9970FB6F894DEBF0FBECDBF19825DC193
:100D20008981882F90E08E549E4FFC018081882F0E
:100D300090E08E539F4F9C838B838B819C81FC0121
:100D400084918D838D818A8380918E01813039F4E5
:100D50008981823021F48A8180628A830AC08091ED
:100D60008F01813031F48981853019F48A81806264
:100D70008A838EE490E02A81FC01208300008DE4C8
:100D800090E0FC0180818095881F8827881F882338
:100D9000B1F78EE490E02981222F30E020523F4FBE
:100DA0003F832E832E813F81F90124912887288556
:100DB000FC01208300008DE490E0FC01808180959F
:100DC000881F8827881F8823B1F785E290E025E2F5
:100DD00030E0F90120812460FC01208385E290E06D
:100DE00025E230E0F90120812B7FFC01208380E0A7
:100DF00090E0A8ECB2E489879A87AB87BC872BEA9E
:100E00003AEA4AEA50E469857A858B859C850E9496
:100E10001218DC01CB018D879E87AF87B88B20E04D
:100E200030E040E850E469857A858B859C850E9496
:100E30001218DC01CB01898B9A8BAB8BBC8B20E029
:100E400030E040E85FE36D857E858F8598890E945C
:100E5000BF1688231CF481E08D8BB6C020E03FEFE5
:100E60004FE757E469897A898B899C890E940E181B
:100E700018160CF07FC020E030E04AE754E46985A2
:100E80007A858B859C850E94C316DC01CB018E8BF5
:100E90009F8BA88FB98F20E030E04AE755E46E8938
:100EA0007F89888D998D0E941218DC01CB018A8F71
:100EB0009B8FAC8FBD8F20E030E040E85FE36A8D10
:100EC0007B8D8C8D9D8D0E94BF1688232CF481E034
:100ED00090E09F8F8E8F41C020E03FEF4FE757E4B7
:100EE0006A8D7B8D8C8D9D8D0E940E1818165CF579
:100EF00020E030E040E251E46E897F89888D998D51
:100F00000E941218DC01CB01BC01CD010E943017F8
:100F1000DC01CB019F8F8E8F0FC080E991E099A3F8
:100F200088A388A199A10197F1F799A388A38E8D31
:100F30009F8D01979F8F8E8F8E8D9F8D009769F764
:100F400089A58D8B41C06A8D7B8D8C8D9D8D0E9476
:100F50003017DC01CB019F8F8E8F8E8D9F8D9BA3D1
:100F60008AA38AA19BA10197F1F79BA38AA389A5D4
:100F70008D8B2AC020E030E04FE753E46D857E85FD
:100F80008F8598890E940E181816ACF469897A89A1
:100F90008B899C890E943017DC01CB019DA38CA317
:100FA0008CA19DA19FA38EA38EA19FA10197F1F774
:100FB0009FA38EA30FC06D857E858F8598890E9423
:100FC0003017DC01CB018D8B8D8988A788A58A9588
:100FD000F1F788A789818F5F89838981863008F43A
:100FE0009FCEA9960FB6F894DEBF0FBECDBFDF919E
:100FF000CF910895EF92FF920F931F93CF93DF93BA
:101000001F92CDB7DEB72091AE013091AF01409174
:10101000B0015091B1018091C0019091C101A091A6
:10102000C201B091C30179018A01E81AF90A0A0BD9
:101030001B0BD801C7018F319105A105B10508F43B
:1010400079C080918F018823D9F080918A0188230B
:1010500029F010928A011092C40112C08091C4013B
:10106000882341F00E948D0480918D0181608093DE
:101070008D0106C010928A0181E08093C40100C0F6
:1010800080918E01882309F12091A8013091A90156
:1010900080919C0190919D018901081B190BC80149
:1010A0008F31910584F08091C501882341F00E9421
:1010B000BD0380918C01826080938C0106C081E029
:1010C0008093C50102C01092C50180918F018823D1
:1010D00009F12091AA013091AB0180919E0190917C
:1010E0009F01A901481B590BCA018F31910584F05A
:1010F0008091C601882341F00E948D0480918D016A
:10110000826080938D0106C081E08093C60102C099
:101110001092C6018091AE019091AF01A091B001F3
:10112000B091B1018093C0019093C101A093C2011D
:10113000B093C30188E0898380918C01882F90E06F
:101140002981222F30E021503109022E02C09595CD
:1011500087950A94E2F781709927009751F081E111
:101160008093B2018AE18093B30189818150809399
:10117000B40180918D01882F90E02981222F30E0E9
:1011800021503109022E02C0959587950A94E2F705
:1011900081709927009751F081E18093B5018AE130
:1011A0008093B601898181508093B70189818150F4
:1011B00089838981882309F0BFCF0F90DF91CF9178
:1011C0001F910F91FF90EF900895CF93DF93CDB7CC
:1011D000DEB72D970FB6F894DEBF0FBECDBF8B875D
:1011E0006C874D8719827FC08C85882F90E0813075
:1011F000910561F18230910509F44DC0009709F025
:101200006FC08981282F30E08B85882F90E0820F76
:10121000931FAC014E545E4F8D85282F30E089819D
:10122000682F70E0C901880F991F820F931F860FE6
:10123000971F8A519F4F9B838A838A819B81FC01E0
:1012400084918C838C81FA0180834AC08981282F04
:1012500030E08B85882F90E0820F931FAC014E54B5
:101260005E4F8D85282F30E08981682F70E0C9019D
:10127000880F991F820F931F860F971F895F9E4FBC
:101280009E838D838D819E81FC0184918F838F81CC
:10129000FA01808325C08981282F30E08B85882F33
:1012A00090E0820F931FAC014E545E4F8D85282F26
:1012B00030E08981682F70E0C901880F991F820F83
:1012C000931F860F971F88509F4F9987888788851F
:1012D0009985FC0184918A878A85FA0180830000C0
:1012E00089818F5F89838981833008F47DCF2D9632
:1012F0000FB6F894DEBF0FBECDBFDF91CF9108953A
:10130000CF93DF931F92CDB7DEB78983898188237E
:1013100051F08091920190919301482F61E083E018
:101320000E94E50809C08091920190919301482F95
:1013300061E080E00E94E50881E00F90DF91CF91AD
:101340000895EF92FF920F931F93CF93DF93CDB742
:10135000DEB72C970FB6F894DEBF0FBECDBF1F824D
:1013600018861A8619861C861B861B821C82809111
:101370008401813009F096C080910401882F90E0AB
:10138000AA2797FDA095BA2F42E050E024E130E073
:10139000841B950B2817390708F454C08C5C9F4FA9
:1013A000FC010C94891881E00E9480098C834AC05A
:1013B00081E08F8380919201909193019A87898730
:1013C00041C081E0888780919201909193019C8730
:1013D0008B8738C080E00E9480098B8333C081E016
:1013E0000E9480098C832EC081E08F8380919201BE
:1013F000909193019A87898725C081E088878091A1
:101400009201909193019C878B871CC080E00E9481
:1014100080098B8317C081E00E9480098C8312C0F1
:1014200081E08F8380919201909193019A878987BF
:1014300009C081E0888780919201909193019C87F7
:101440008B8700008F81882319F48B81882311F00A
:1014500081E001C080E0882361F080910401882F41
:1014600090E0959587958F5F482F61E083E00E941B
:10147000E5088885882319F48C81882311F081E0A0
:1014800001C080E0882309F4C9C080910401882F3D
:1014900090E0959587958F5F482F61E080E00E94EE
:1014A000E508BCC080918401882309F0B7C01A8286
:1014B00019824AC089819A81880F991F89539E4F4A
:1014C000FC012081318189819A81880F991F84567E
:1014D0009E4FFC01808191817901E81AF90AC701C8
:1014E0009E838D838D819E818430910534F48D811E
:1014F0009E818D3F0FEF900714F58091AE01909182
:10150000AF01A091B001B091B1018093CB01909354
:10151000CC01A093CD01B093CE0189819A81880F2F
:10152000991F84569E4FFC012081318189819A81C7
:10153000880F991F89539E4FFC0131832083898135
:101540009A8101969A83898389819A818230910553
:101550000CF4B0CF2091AE013091AF014091B001B9
:101560005091B1018091CB019091CC01A091CD011E
:10157000B091CE0179018A01E81AF90A0A0B1B0B16
:10158000D801C7018A379105A105B10588F481E02A
:101590008F8381E0888780919C0190919D019A873B
:1015A000898780919E0190919F019C878B8736C08F
:1015B00080918E01882371F48091A4019091A501FE
:1015C0008B3802E0900734F01F824CE061E080E04D
:1015D0000E94E50881E08F838091A8019091A90184
:1015E0009A87898780918F01882379F48091A60159
:1015F0009091A7018B3812E091073CF018864CE0DF
:1016000061E083E00E94E50809C081E0888780915D
:10161000AA019091AB019C878B8700C09F8181E0DC
:10162000992309F480E0882309F43EC082E090E029
:101630009A83898335C049855A859A01ADECBCEC03
:101640000E948F189695879596958795969587957C
:10165000880F991F9C01220F331F220F331F820F07
:10166000931F9A01281B390BC901282F89819A8160
:101670008E549E4FFC01208389859A859C01ADEC98
:10168000BCEC0E948F1896958795969587959695B0
:1016900087959A87898789819A8101979A83898317
:1016A00089819A8199233CF6988581E0992309F4F0
:1016B00080E0882309F43FC085E090E09A83898325
:1016C00035C04B855C859A01ADECBCEC0E948F184F
:1016D000969587959695879596958795880F991FE6
:1016E0009C01220F331F220F331F820F931F7A0199
:1016F000E81AF90AC701282F89819A818E549E4FD2
:10170000FC0120838B859C859C01ADECBCEC0E9488
:101710008F189695879596958795969587959C872A
:101720008B8789819A8101979A83898389819A819C
:101730008330910534F680918401882311F40E944E
:10174000FA072C960FB6F894DEBF0FBECDBFDF911F
:10175000CF911F910F91FF90EF900895CF93DF935A
:10176000CDB7DEB760970FB6F894DEBF0FBECDBF22
:101770008091CF018C3008F042C08091D0019091CF
:10178000D101A091D201B091D3019C01AD01235CA4
:101790003F4F4F4F5F4F8091AE019091AF01A091AD
:1017A000B001B091B101281739074A075B0730F53E
:1017B00019820CC08981882F90E02091CF018E542E
:1017C0009E4FFC01208389818F5F898389818630C8
:1017D00088F38091AE019091AF01A091B001B091DA
:1017E000B1018093D0019093D101A093D201B09325
:1017F000D3018091CF018F5F8093CF01C6C08091CC
:10180000D0019091D101A091D201B091D3019C015E
:10181000AD0128513C4F4F4F5F4F8091AE019091E9
:10182000AF01A091B001B091B10182179307A40755
:10183000B50708F0A8C08091D4019091D501A0917E
:10184000D601B091D7019C01AD01235C3F4F4F4FB2
:101850005F4F8091AE019091AF01A091B001B09126
:10186000B101281739074A075B0708F08BC01A82B5
:1018700013C08A810E942801982F81E0992309F4DE
:1018800080E0882331F04A8160E080E00E94E50832
:1018900006C08A818F5F8A838A81863050F380E018
:1018A00090E0A0ECB0E48B839C83AD83BE8320E00A
:1018B00030E04AE755E46B817C818D819E810E94F6
:1018C0001218DC01CB018F839887A987BA8720E0A3
:1018D00030E040E85FE36F81788589859A850E94D2
:1018E000BF1688232CF481E090E09C878B873FC053
:1018F00020E03FEF4FE757E46F81788589859A852F
:101900000E940E1818164CF520E030E040E251E439
:101910006B817C818D819E810E941218DC01CB013C
:10192000BC01CD010E943017DC01CB019C878B8765
:101930000FC080E991E09E878D878D859E850197F8
:10194000F1F79E878D878B859C8501979C878B8778
:101950008B859C85009769F715C06F81788589858F
:101960009A850E943017DC01CB019C878B878B8581
:101970009C85988B8F878F8598890197F1F7988B35
:101980008F8703C002C01092890160960FB6F89449
:10199000DEBF0FBECDBFDF91CF910895CF93DF9310
:1019A000CDB7DEB782E00E942801982F81E099230D
:1019B00009F480E0882371F081E08093840181E064
:1019C0008093040110928E0110928F010E94BD033A
:1019D0000E948D0480E00E942801982F81E09923C5
:1019E00009F480E0882389F090918E0181E09923A9
:1019F00009F080E080938E0180918E01882319F098
:101A00000E94A00302C00E94BD038091910188231F
:101A100009F458C081E00E942801982F81E09923A1
:101A200009F480E0882311F190918F0181E09923DE
:101A300009F080E080938F0180918F01882399F0D5
:101A40008BE290E02BE230E0F90120812860FC017C
:101A500020838DE390E02DE330E0F90120812160C7
:101A6000FC0120835AC00E948D0457C00E941C02B2
:101A7000982F81E0992309F480E0882341F0809138
:101A80008F01882309F449C00E948D0446C08091CB
:101A90008F01882309F041C081E080938F018BE2A0
:101AA00090E02BE230E0F90120812860FC012083E6
:101AB0008DE390E02DE330E0F90120812160FC010D
:101AC00020832BC081E00E942801982F81E0992378
:101AD00009F480E0882309F190918F0181E0992336
:101AE00009F080E080938F0180918F01882399F025
:101AF0008BE290E02BE230E0F90120812860FC01CC
:101B000020838DE390E02DE330E0F9012081216016
:101B1000FC01208302C00E948D0484E00E94280101
:101B2000982F81E0992309F480E0882321F0109216
:101B30008C0110928D01DF91CF910895CF93DF93A7
:101B400000D000D0CDB7DEB79C838B838B819C8186
:101B5000FC01808191819A83898383E00E9428011E
:101B6000982F81E0992309F480E0882351F021E047
:101B700089819A81009709F020E0822F90E09A8372
:101B8000898384E00E942801982F81E0992309F439
:101B900080E0882351F021E089819A81009709F043
:101BA00020E0822F90E09A83898382E00E942801BE
:101BB000982F81E0992309F480E0882329F080910F
:101BC00004018F5F8093040189819A810F900F90A7
:101BD0000F900F90DF91CF910895CF93DF9300D0B6
:101BE00000D0CDB7DEB79C838B838B819C81FC01B9
:101BF000808191819A83898383E00E942801982FB4
:101C000081E0992309F480E0882329F089819A8171
:101C100001969A83898384E00E942801982F81E0AD
:101C2000992309F480E0882329F089819A8101971A
:101C30009A83898382E00E942801982F81E099236A
:101C400009F480E0882329F0809104018F5F80935C
:101C5000040189819A810F900F900F900F90DF916E
:101C6000CF9108950F931F93CF93DF9300D01F92CE
:101C7000CDB7DEB780910401882F90E0AA2797FDA9
:101C8000A095BA2F41E050E027E130E0841B950B8E
:101C90002817390708F4FAC1875B9F4FFC010C94A1
:101CA0008918109293011092920182E080930401AE
:101CB000EDC182E991E00E949E0D90939301809383
:101CC0009201E4C18091920190919301813091053C
:101CD00039F481E08093890188E180930401D6C1C1
:101CE00089E091E00E94BA18909393018093920149
:101CF00084E080930401CAC182E991E00E94ED0D65
:101D00009093930180939201C1C18091920190912F
:101D100093018C0189E091E00E94BA180817190715
:101D200089F08091920190919301BC0189E091E04A
:101D30000E94CE1880919201909193019093990105
:101D4000809398018BE091E00E94BA1890939301E0
:101D50008093920186E08093040198C182E991E02A
:101D60000E94ED0D90939301809392018FC1809119
:101D70009201909193018C018BE091E00E94BA183E
:101D80000817190789F08091920190919301BC0185
:101D90008BE091E00E94CE18809192019091930186
:101DA00090939B0180939A0110929301109292015B
:101DB00088E0809304016AC182E991E00E949E0D4F
:101DC000909393018093920161C1809192019091CF
:101DD00093018130910579F48BE490E0909399011F
:101DE000809398018091980190919901BC0189E0BC
:101DF00091E00E94CE1810929301109292018AE015
:101E00008093040143C182E991E00E949E0D90936A
:101E10009301809392013AC1809192019091930134
:101E20008130910579F48DE790E090939B01809348
:101E30009A0180919A0190919B01BC018BE091E005
:101E40000E94CE18809194019091950190939301F6
:101E5000809392018CE08093040118C182E991E0A3
:101E60000E94ED0D90939301809392010FC12091F8
:101E700094013091950180919201909193012817DE
:101E8000390789F080919201909193019093950187
:101E9000809394018091920190919301BC018CEA0E
:101EA00091E00E94CE1880919601909197019093B5
:101EB0009301809392018EE080930401E7C082E950
:101EC00091E00E94ED0D9093930180939201DEC00A
:101ED0002091960130919701809192019091930108
:101EE0002817390789F0809192019091930190937E
:101EF0009701809396018091920190919301BC018A
:101F000087E091E00E94CE18109293011092920106
:101F100080E180930401BAC082E991E00E949E0DA5
:101F20009093930180939201B1C08091920190911E
:101F300093018130910579F48FE090E090939501C1
:101F4000809394018091940190919501BC018CEA59
:101F500091E00E94CE18109293011092920182E1BA
:101F60008093040193C082E991E00E949E0D9093BA
:101F70009301809392018AC0809192019091930184
:101F80008130910579F484E190E0909397018093FA
:101F900096018091960190919701BC0187E091E0B4
:101FA0000E94CE1885E091E00E94B218882F90E040
:101FB000909393018093920184E18093040166C021
:101FC00082E991E00E949E0D90939301809392018B
:101FD0005DC085E091E00E94B218282F30E080912A
:101FE0009201909193012817390779F0809192011D
:101FF00090919301682F85E091E00E94C018809134
:102000009201909193018093900186E091E00E946B
:10201000B218882F90E0909393018093920186E10B
:102020008093040133C082E991E00E949E0D909359
:102030009301809392012AC086E091E00E94B21839
:10204000282F30E080919201909193012817390751
:1020500079F08091920190919301682F86E091E050
:102060000E94C018809192019091930180939001F9
:10207000109293011092920188E18093040106C0AE
:102080001092840181E08093040100001A82198279
:102090001B820FC0CE0103960E94B218882F90E0D9
:1020A00029813A81820F931F9A8389838B818F5F65
:1020B0008B838B818A3070F389819A81BC018DE09A
:1020C00091E00E94CE180F900F900F90DF91CF916A
:1020D0001F910F910895CF93DF931F92CDB7DEB775
:1020E0008AE290E02AE230E0F90120812A61FC01D5
:1020F000208384E290E024E230E0F90120812C6228
:10210000FC0120838AE290E02AE230E0F90120819C
:102110002A71FC01208384E290E024E230E0F9019E
:1021200020812C7FFC0120838BE290E02BE230E0C9
:10213000F9012081216EFC01208385E290E025E2F7
:1021400030E0F90120812360FC01208385E290E0EA
:1021500025E230E0F9012081237DFC01208385E424
:1021600090E025E430E0F9012081287FFC01208304
:1021700085E490E025E430E0F90120812560FC0150
:1021800020838EE690E02EE630E0F9012081216088
:10219000FC01208386E693E00E94121681E890E01D
:1021A00021E830E0F9012081287FFC01208381E8CB
:1021B00090E021E830E0F90120812160FC012083DA
:1021C00080E893E00E94241680E993E00E9436168E
:1021D00081EB90E021EB30E0F9012081287FFC01C8
:1021E000208381EB90E021EB30E0F9012081216038
:1021F000FC01208388EB94E00E94481680EE94E076
:102200000E944D0389E690E029E630E0F901208143
:102210002260FC01208385E590E025E530E0F901AE
:1022200020812E7FFC0120830E94C3008CE490E07B
:102230002CE430E0F90120812065FC0120838CE44E
:1022400090E02CE430E0F90120812F7DFC01208317
:102250008DE490E02DE430E0F90120812160FC0163
:102260002083198212C08EE490E0FC0110820000ED
:102270008DE490E0FC0180818095881F8827881F6D
:102280008823B1F789818F5F89838981823058F3F0
:1022900085E290E025E230E0F90120812460FC0134
:1022A000208385E290E025E230E0F90120812B7F58
:1022B000FC0120838CEA91E00E94BA18909395016A
:1022C0008093940187E091E00E94BA18909397015F
:1022D0008093960189E091E00E94BA189093990149
:1022E000809398018BE091E00E94BA1890939B0133
:1022F00080939A0185E091E00E94B218809390014A
:1023000086E091E00E94B218809391010E94BD0383
:102310000E948D0488E190E02FE00FB6F894A89514
:10232000809360000FBE2093600078940F90DF913F
:10233000CF910895EF92FF920F931F93CF93DF9366
:1023400000D000D0CDB7DEB70E946B1044E062E051
:1023500080E00E94E508198247C084E590E0FC0116
:102360008081882F90E02981222F30E002C095954E
:1023700087952A95E2F78170992721E0009709F463
:1023800020E0222371F189818093B4011B821A829B
:102390001C820FC0CE0104960E94B218882F90E0D4
:1023A0002A813B81820F931F9B838A838C818F5F5D
:1023B0008C838C818A3070F38DE091E00E94BA1892
:1023C0009C018A819B812817390729F080918C0113
:1023D000816080938C01498162E083E00E94E5087E
:1023E00007C089818F5F89838981843008F4B5CFE4
:1023F00003C00E948406A8958091AE019091AF0120
:10240000A091B001B091B10187339105A105B1054B
:1024100080F380918901882309F084C02091AE0166
:102420003091AF014091B0015091B1018091D8013C
:102430009091D901A091DA01B091DB0179018A0173
:10244000E81AF90A0A0B1B0BD801C7018D30910558
:10245000A105B10590F00E94A1098091AE01909173
:10246000AF01A091B001B091B1018093D8019093D8
:10247000D901A093DA01B093DB012091DC01309106
:10248000DD014091DE015091DF018091AE0190911C
:10249000AF01A091B001B091B101281739074A07E7
:1024A0005B0709F43EC00E94C80580918E01882315
:1024B00011F00E94F30380918401882F90E000972F
:1024C00021F08130910521F006C00E94CE0C03C09E
:1024D0000E94320E000080918B01813091F4809136
:1024E000A6019091A701823091055CF48BE290E007
:1024F0002BE230E0F9012081277FFC01208310923C
:102500008B018091AE019091AF01A091B001B0918B
:10251000B1018093DC019093DD01A093DE01B093C3
:10252000DF0102C00E94AE0B0E948406A89571CF05
:102530008F929F92AF92BF92CF92DF92EF92FF92D3
:102540000F931F93CF93DF9300D000D0CDB7DEB7AA
:102550009A8389837C836B8389819A8181309105F9
:1025600009F03FC08B819C818F3F2FEF9207C9F507
:102570000F2EF4E98F2EF7E89F2EF5E8AF2EFCE33F
:10258000BF2EF02DC12CD12C76016894F6F800E016
:1025900010E020E230E440E050E060EC7FE38CE3C8
:1025A00091E00E9459140F2EF4E98F2EF7E89F2E28
:1025B000F5E8AF2EFCE3BF2EF02D0F2EC12CD12C51
:1025C000F0ECEF2EF0E4FF2EF02D00E010E020E024
:1025D00031E440E050E060E870E480E691E00E9481
:1025E00059140F900F900F900F90DF91CF911F9182
:1025F0000F91FF90EF90DF90CF90BF90AF909F90A2
:102600008F900895CF93DF93CDB7DEB76FEF7FEF55
:1026100081E090E00E949812DF91CF910895CF93CE
:10262000DF9300D0CDB7DEB79A83898329813A81C1
:102630008DEB97E3A6E8B5E3F901808B918BA28B34
:10264000B38B29813A818DEB97E3A6E8B5E3F901D5
:10265000848B958BA68BB78B29813A818DEB97E381
:10266000A6E8B5E3F901808F918FA28FB38F2981FE
:102670003A818DEB97E3A6E8B5E3F901848F958F56
:10268000A68FB78F29813A818DEB97E3A6E8B5E352
:10269000F90180A391A3A2A3B3A30F900F90DF91A0
:1026A000CF910895CF92DF92EF92FF92CF93DF9375
:1026B00000D000D000D0CDB7DEB79A8389837C8369
:1026C0006B835E834D838B819C81FC0120813181F2
:1026D0008D819E81FC0180819181A901481B590B4C
:1026E000CA01AA2797FDA095BA2FBC01CD010E946F
:1026F0005E17DC01CB0129813A81F901808F918F2E
:10270000A28FB38F89819A81FC0184899589A689DA
:10271000B78929813A81F901808B918BA28BB38B88
:1027200089819A81FC01808D918DA28DB38D298143
:102730003A81F901848B958BA68BB78B89819A811D
:10274000FC01C48CD58CE68CF78C89819A81FC01C4
:1027500084819581A681B7819C01AD0160E070E024
:1027600080E89FE30E94C316DC01CB0129813A81F6
:10277000F9012489358946895789BC01CD010E9418
:102780001218DC01CB0129813A81F90124853585B4
:1027900046855785BC01CD010E941218DC01CB0192
:1027A0009C01AD01C701B6010E945B16DC01CB01A3
:1027B00029813A81F901848F958FA68FB78F8981FE
:1027C0009A81FC01C084D184E284F38489819A8156
:1027D000FC0184899589A689B78929813A81F90103
:1027E0002089318942895389BC01CD010E945A1642
:1027F000DC01CB019C01AD01C701B6010E9412189A
:10280000DC01CB0129813A81F90124853585468592
:102810005785BC01CD010E94C316DC01CB01298183
:102820003A81F90180A391A3A2A3B3A389819A81DC
:10283000FC0180819181A281B38129813A81F901D2
:102840002489358946895789BC01CD010E94121817
:10285000DC01CB0129813A81F901248D358D468D2A
:10286000578DBC01CD010E945B16DC01CB01298193
:102870003A81F90120A131A142A153A1BC01CD01AE
:102880000E945B16DC01CB01BC01CD010E942B171D
:10289000DC01CB01BC01CD0126960FB6F894DEBF5A
:1028A0000FBECDBFDF91CF91FF90EF90DF90CF9023
:1028B00008958F929F92AF92BF92CF92DF92EF9244
:1028C000FF920F931F93CF93DF93CDB7DEB762973D
:1028D0000FB6F894DEBF0FBECDBF9A8389834B83BA
:1028E0005C836D837E830F83188729873A87CB8625
:1028F000DC86ED86FE868F86988AA98ABA8A298127
:102900003A818B819C81AD81BE81F9018083918365
:10291000A283B38329813A818F819885A985BA855D
:10292000F90184839583A683B78329813A818B85B6
:102930009C85AD85BE85F90180879187A287B38785
:1029400029813A818F859889A989BA89F901848773
:102950009587A687B78789819A810E940F1362960F
:102960000FB6F894DEBF0FBECDBFDF91CF911F91A0
:102970000F91FF90EF90DF90CF90BF90AF909F901E
:102980008F9008951F920F9200905F000F92112474
:102990002F933F934F935F936F937F938F939F9367
:1029A000AF93BF93EF93FF93CF93DF93CDB7DEB792
:1029B00080910F0190911001FC010995DF91CF9159
:1029C000FF91EF91BF91AF919F918F917F916F9107
:1029D0005F914F913F912F910F9000925F000F9068
:1029E0001F9018951F920F9200905F000F92112474
:1029F0002F933F934F935F936F937F938F939F9307
:102A0000AF93BF93EF93FF93CF93DF93CDB7DEB731
:102A10008091110190911201FC010995DF91CF91F4
:102A2000FF91EF91BF91AF919F918F917F916F91A6
:102A30005F914F913F912F910F9000925F000F9007
:102A40001F9018951F920F9200905F000F92112413
:102A50002F933F934F935F936F937F938F939F93A6
:102A6000AF93BF93EF93FF93CF93DF93CDB7DEB7D1
:102A70008091130190911401FC010995DF91CF9190
:102A8000FF91EF91BF91AF919F918F917F916F9146
:102A90005F914F913F912F910F9000925F000F90A7
:102AA0001F9018951F920F9200905F000F921124B3
:102AB0002F933F934F935F936F937F938F939F9346
:102AC000AF93BF93EF93FF93CF93DF93CDB7DEB771
:102AD0008091150190911601FC010995DF91CF912C
:102AE000FF91EF91BF91AF919F918F917F916F91E6
:102AF0005F914F913F912F910F9000925F000F9047
:102B00001F9018951F920F9200905F000F92112452
:102B10002F933F934F935F936F937F938F939F93E5
:102B2000AF93BF93EF93FF93CF93DF93CDB7DEB710
:102B30008091170190911801FC010995DF91CF91C7
:102B4000FF91EF91BF91AF919F918F917F916F9185
:102B50005F914F913F912F910F9000925F000F90E6
:102B60001F9018951F920F9200905F000F921124F2
:102B70002F933F934F935F936F937F938F939F9385
:102B8000AF93BF93EF93FF93CF93DF93CDB7DEB7B0
:102B90008091190190911A01FC010995DF91CF9163
:102BA000FF91EF91BF91AF919F918F917F916F9125
:102BB0005F914F913F912F910F9000925F000F9086
:102BC0001F9018951F920F9200905F000F92112492
:102BD0002F933F934F935F936F937F938F939F9325
:102BE000AF93BF93EF93FF93CF93DF93CDB7DEB750
:102BF00080911B0190911C01FC010995DF91CF91FF
:102C0000FF91EF91BF91AF919F918F917F916F91C4
:102C10005F914F913F912F910F9000925F000F9025
:102C20001F901895CF93DF9300D0CDB7DEB79A836E
:102C3000898389819A819093100180930F010F906D
:102C40000F90DF91CF910895CF93DF9300D0CDB750
:102C5000DEB79A83898389819A8190931201809348
:102C600011010F900F90DF91CF910895CF93DF93D3
:102C700000D0CDB7DEB79A83898389819A819093FA
:102C80001401809313010F900F90DF91CF9108955D
:102C9000CF93DF9300D0CDB7DEB79A838983898144
:102CA0009A8190931801809317010F900F90DF91F4
:102CB000CF9108955058BB27AA270ED075C166D171
:102CC00030F06BD120F031F49F3F11F41EF45BC162
:102CD0000EF4E095E7FB51C1E92F77D180F3BA17E5
:102CE000620773078407950718F071F49EF58FC18A
:102CF0000EF4E0950B2EBA2FA02D0B01B901900117
:102D00000C01CA01A0011124FF27591B99F0593F5A
:102D100050F4503E68F11A16F040A22F232F342FA2
:102D20004427585FF3CF469537952795A795F040F0
:102D30005395C9F77EF41F16BA0B620B730B840B05
:102D4000BAF09150A1F0FF0FBB1F661F771F881FBD
:102D5000C2F70EC0BA0F621F731F841F48F4879515
:102D600077956795B795F7959E3F08F0B3CF939504
:102D7000880F08F09927EE0F979587950895D9D079
:102D800008F481E008950CD00FC107D140F0FED0C7
:102D900030F021F45F3F19F0F0C0511139C1F3C098
:102DA00014D198F39923C9F35523B1F3951B550B0F
:102DB000BB27AA2762177307840738F09F5F5F4F0E
:102DC000220F331F441FAA1FA9F333D00E2E3AF04F
:102DD000E0E830D091505040E695001CCAF729D069
:102DE000FE2F27D0660F771F881FBB1F26173707B8
:102DF0004807AB07B0E809F0BB0B802DBF01FF27E8
:102E000093585F4F2AF09E3F510568F0B6C000C14D
:102E10005F3FECF3983EDCF3869577956795B79521
:102E2000F7959F5FC9F7880F911D9695879597F93C
:102E30000895E1E0660F771F881FBB1F62177307B5
:102E40008407BA0720F0621B730B840BBA0BEE1FCA
:102E500088F7E095089504D06894B111D9C0089519
:102E6000BCD088F09F5790F0B92F9927B751A0F0A8
:102E7000D1F0660F771F881F991F1AF0BA95C9F70E
:102E800012C0B13081F0C3D0B1E00895C0C0672F47
:102E9000782F8827B85F39F0B93FCCF386957795BE
:102EA0006795B395D9F73EF49095809570956195A7
:102EB0007F4F8F4F9F4F0895E89409C097FB3EF4D2
:102EC00090958095709561957F4F8F4F9F4F992377
:102ED000A9F0F92F96E9BB279395F69587957795F5
:102EE0006795B795F111F8CFFAF4BB0F11F460FFB5
:102EF0001BC06F5F7F4F8F4F9F4F16C0882311F00D
:102F000096E911C0772321F09EE8872F762F05C020
:102F1000662371F096E8862F70E060E02AF09A95BB
:102F2000660F771F881FDAF7880F9695879597F9B0
:102F30000895990F0008550FAA0BE0E8FEEF16164A
:102F40001706E807F907C0F012161306E407F5079D
:102F500098F0621B730B840B950B39F40A2661F011
:102F6000232B242B252B21F408950A2609F4A140B4
:102F7000A6958FEF811D811D089597F99F6780E8C1
:102F800070E060E008959FEF80EC089500240A94BB
:102F90001616170618060906089500240A94121634
:102FA0001306140605060895092E0394000C11F467
:102FB000882352F0BB0F40F4BF2B11F460FF04C014
:102FC0006F5F7F4F8F4F9F4F089557FD9058440F6D
:102FD000551F59F05F3F71F04795880F97FB991F78
:102FE00061F09F3F79F08795089512161306140635
:102FF000551FF2CF4695F1DF08C0161617061806C2
:10300000991FF1CF86957105610508940895E8949C
:10301000BB2766277727CB0197F908958ADF08F445
:103020008FEF08950BD0C0CFB1DF28F0B6DF18F0D6
:10303000952309F0A2CFA7CF1124EACFC6DFA0F3D2
:10304000959FD1F3950F50E0551F629FF001729F3D
:10305000BB27F00DB11D639FAA27F00DB11DAA1F5C
:10306000649F6627B00DA11D661F829F2227B00DA9
:10307000A11D621F739FB00DA11D621F839FA00D34
:10308000611D221F749F3327A00D611D231F849F84
:10309000600D211D822F762F6A2F11249F575040DB
:1030A0008AF0E1F088234AF0EE0FFF1FBB1F661F76
:1030B000771F881F91505040A9F79E3F510570F02F
:1030C0005CCFA6CF5F3FECF3983EDCF38695779517
:1030D0006795B795F795E7959F5FC1F7FE2B880F2A
:1030E000911D9695879597F9089597FB072E16F4ED
:1030F000009407D077FD09D00E949E1807FC05D0E8
:103100003EF4909581959F4F0895709561957F4FFE
:103110000895EE0FFF1F0590F491E02D0994A29FF2
:10312000B001B39FC001A39F700D811D1124911D9B
:10313000B29F700D811D1124911D0895AA1BBB1B08
:1031400051E107C0AA1FBB1FA617B70710F0A61BA7
:10315000B70B881F991F5A95A9F780959095BC01C8
:10316000CD010895F999FECF92BD81BDF89A9927B6
:1031700080B50895A8E1B0E042E050E00C94D51885
:10318000262FF999FECF1FBA92BD81BD20BD0FB683
:10319000F894FA9AF99A0FBE019608950E94C01801
:1031A000272F0C94C118DC01CB01FC01F999FECF4B
:1031B00006C0F2BDE1BDF89A319600B40D924150BF
:0A31C0005040B8F70895F894FFCFCF
:1031CA005F035F030104050200060008000A005FAE
:0E31DA00035F035F035F035F035F035F030098
:00000001FF
